:020000040000FA
:10000000C0380020450200004D0200004F020000F1
:1000100000000000000000000000000000000000E0
:10002000000000000000000000000000510200007D
:100030000000000000000000530200005502000014
:1000400057020000590200005B0200005D02000040
:100050005F02000061020000630200006502000010
:1000600067020000690200006B0200006D020000E0
:100070006F020000710200007302000075020000B0
:1000800077020000790200007B0200007D02000080
:100090007F02000081020000830200008502000050
:1000A000870200000000000000000000890200003C
:1000B0008B0200008D0200008F0200009102000000
:1000C00000F002F800F0AFF80CA030C8083824188F
:1000D0002D18671EA246AB4654465D46AC4201D180
:1000E00000F0A1F87E460F3EB6460FCC0126334203
:1000F00000D0FB1A3343A246AB461847A43C00008D
:10010000C43C00000023002400250026103A01D33F
:1001100078C1FBD8520700D330C100D50B607047BF
:1001200010B56E2902D100F07BFA10BD702902D102
:1001300000F0BDFB10BD662902D103F0A3FD10BD88
:10014000652902D103F09EFD10BD672902D103F09D
:1001500099FD10BD612902D103F09CFD10BD03681B
:100160001B0A01D380231943692902D100F022FA26
:1001700010BD642902D100F01DFA10BD752902D10D
:1001800000F018FA10BD6F2902D100F03BFB10BD42
:10019000782902D100F078FB10BDE92902D100F0E6
:1001A000D7FA10BDE42902D100F0D2FA10BDF5292A
:1001B00002D100F0CDFA10BDEF2902D100F02EFBE4
:1001C00010BDF82902D100F06DFB10BD0368DB09FA
:1001D00001D380231943632902D101F050F810BDE7
:1001E000732902D101F053F810BDE32902D101F0C7
:1001F0005DF810BDF32902D101F060F810BD0020B8
:1002000010BD1FB501F0BAF804000020002103F072
:1002100023FD401C60600020002103F007FDE0602A
:100220001FBD10B510BD01F082F81146FFF7E9FFC0
:1002300003F07AFB01F016FC03B4FFF7F2FF03BCF6
:1002400001F074FC1648804716480047FEE7FEE7B9
:10025000FEE7FEE7FEE7FEE7FEE7FEE7FEE7FEE776
:10026000FEE7FEE7FEE7FEE7FEE7FEE7FEE7FEE766
:10027000FEE7FEE7FEE7FEE7FEE7FEE7FEE7FEE756
:10028000FEE7FEE7FEE7FEE7FEE7FEE7FEE7FEE746
:10029000FEE7000004480549054A064B7047000088
:1002A00099250000C1000000C0180020C0380020BF
:1002B000C0280020C02800207CB51D4616460C0032
:1002C000009001D00019401E084B7B442A46694625
:1002D0000190304600F0BDF9002C054603D0694678
:1002E000002000F0C9F928467CBD0000B5030000DD
:1002F000002203098B4273D3030A8B4258D3030BAA
:100300008B423CD3030C8B4221D312E003460B43B8
:100310007FD4002243088B4274D303098B425FD3FE
:10032000030A8B4244D3030B8B4228D3030C8B422A
:100330000DD30902FF2212BA030C8B4202D3121210
:10034000090265D0030B8B4219D300E0090AC30BE5
:100350008B4201D3CB03C01A5241830B8B4201D392
:100360008B03C01A5241430B8B4201D34B03C01A7B
:100370005241030B8B4201D30B03C01A5241C30AF3
:100380008B4201D3CB02C01A5241830A8B4201D364
:100390008B02C01A5241430A8B4201D34B02C01A4E
:1003A0005241030A8B4201D30B02C01A5241CDD2F3
:1003B000C3098B4201D3CB01C01A524183098B423E
:1003C00001D38B01C01A524143098B4201D34B0127
:1003D000C01A524103098B4201D30B01C01A52418A
:1003E000C3088B4201D3CB00C01A524183088B4211
:1003F00001D38B00C01A524143088B4201D34B00FA
:10040000C01A5241411A00D201465241104670476B
:100410005DE0CA0F00D04942031000D34042534070
:100420009C46002203098B422DD3030A8B4212D330
:100430008901FC2212BA030A8B420CD38901921162
:100440008B4208D3890192118B4204D389013AD09F
:10045000921100E08909C3098B4201D3CB01C01A74
:10046000524183098B4201D38B01C01A5241430987
:100470008B4201D34B01C01A524103098B4201D375
:100480000B01C01A5241C3088B4201D3CB00C01AE2
:10049000524183088B4201D38B00C01A5241D9D2FA
:1004A00043088B4201D34B00C01A5241411A00D27B
:1004B00001465241104663465B1001D34042002B77
:1004C00000D54942704763465B1000D3404201B5F6
:1004D0000449002802DC491C084000E00846C046E8
:1004E000C04602BDFFFFFF7F70477047704770B581
:1004F000044685690068C10601D5302600E0202643
:10050000C00707D070BD62683046A1689047206A76
:10051000401C20626D1EF6D570BD70B5044685691D
:100520000078C00707D170BD6268A168202090479D
:10053000206A401C20626D1EF6D570BD09684A0510
:1005400001D540B27047C905FCD500B270470968B3
:100550004A0501D5C0B27047C905FCD580B27047C5
:1005600070B50C460546012A05D02878800600D5CE
:10057000EA69002302E0012305E05B1C934202D2FA
:10058000E05C0028F9D1A869E618C01AA861286AB9
:10059000C01828622846FFF7AAFF04E06A6820789E
:1005A000A968641C9047B442F8D32846FFF7B5FF0A
:1005B00070BD0000F7B5002575291068009914A6D4
:1005C00011D0FFF7BBFF002802DA404211A608E075
:1005D000009909688A0701D50FA602E0490704D5EA
:1005E0000EA6012501E0FFF7B2FF009F002424378B
:1005F00004E000F088FE30313955641C0028F8D141
:100600002B4632462146009800F05FFAFEBD0000FE
:10061000000000002D0000002B0000002000000062
:1006200011680268006A530501D5087009E0D30516
:1006300001D5088005E0130602D5C21705C100E008
:10064000086001207047000001694A1C02610878B7
:10065000704700B58FB002910021059105490193C3
:100660007944039111460490684600F02DF90FB0CB
:1006700000BD0000E5FFFFFF0A681070521C0A6011
:1006800070470CC908399A4202D2531C0B60107093
:1006900070470000F7B50446154686B02B487844ED
:1006A000002703C83E460090019111E007986A4672
:1006B0007100415A02A800F005FE411C07D02178C4
:1006C000890603D5E269391891420ED83F18761C85
:1006D0002078800602D5E069B84206DDAE42E5DB4F
:1006E00007987100405A0028E0D1A069C01BA061A2
:1006F0002046FFF7FCFE154878445A3803C800909E
:100700000020019116E041006A460798415A02A86C
:1007100000F0D8FD0590401C0AD0002505E0626875
:1007200002A8A168405D90476D1C05988542F6D3EC
:100730000498401CB0420490E5DB206AC019206296
:100740002046FFF7EAFE09B0F0BD000002360000C7
:10075000F7B5D21D0025D20815A6D200F52905CA85
:1007600011D0002A05DA00214042914111A60A4623
:1007700008E0009909688B0701D50FA602E0490738
:1007800001D50EA601251146009F0024243704E060
:1007900000F05EF930323A55641C02460A43F7D144
:1007A0002B4632462146009800F08FF9FEBD00002E
:1007B000000000002D0000002B00000020000000C1
:1007C00070B504460021243408E05507D2086D0FA7
:1007D000303565545D072A43DB08491C15461D4327
:1007E000F3D10468002310A2250708D520252C404A
:1007F0000C4304D0C46901230CA2641EC46100F040
:1008000064F970BD10B5044621461068FFF79FFEDD
:10081000002302462046FFF7D3FF10BDD21DD108AA
:10082000C9000CC9CCE70000000000003000000047
:10083000F8B50F460188090502D5224C7C4402E038
:10084000204C7C440E3405460021243508E0160770
:100850001209360FA65D6E541E0732431B09491C50
:1008600016461E43F3D1224604780023240705D5FB
:10087000702F06D0002901D00223113200F025F993
:10088000F8BD01231032F9E770B504460D46214644
:100890001068FFF75CFE0023024629462046FFF75A
:1008A000C7FF70BDD21DD308DB000CCBC0E730B44E
:1008B000036820241268234303600823C36130BC0B
:1008C0000023B5E76C340000F3B50446002081B086
:1008D00020622046E1688847002872D0252802D08F
:1008E0006268A168ABE0594F00267F442046E1686A
:1008F00088472028054608DB312D06D27819203894
:100900000078002801D00643F0E7B00701D50420A5
:1009100086430020E0610746A0612A2D0AD02846C0
:1009200003F07CF9002827D0B8000019303D009072
:10093000856119E00298BA00121902C8916102900B
:100940002046E1688847012F054617D1E069002855
:100950001FDA202086431CE000980A218069484362
:1009600000994019303888612046E168884705467B
:1009700003F054F90028EFD1012F0AD02E2D08D111
:100980002046E16888470546202006437F1C022F49
:10099000C3DBA069002803DA4042A06101200643BE
:1009A000F00701D0102086436C2D0BD0682D09D0A4
:1009B0004C2D3CD06A2D38D0742D38D07A2D36D0BD
:1009C00016E040E0E1682F4620468847B8420546D9
:1009D00009D16C2F29D001208002E168064320460E
:1009E0008847054604E06C2F1DD0FF2001300643E8
:1009F000002D28D028464138192803D80120C002EC
:100A000006432035204626602946029A1646FFF7FF
:100A100087FB002810D001280BD0F61DF008C0007D
:100A20000830029055E74020E1E78020D5E700201C
:100A3000D3E7361D02964CE762682846A1689047C6
:100A4000206A401C44E7206AFEBD0000E633000037
:100A50000B4670B5024689078008084319469D0871
:100A6000141AA94125090807054308092C1948410A
:100A7000250A01060D43010A2C194141200C0D04E1
:100A800028430D0C00194D41002140194D41C0086B
:100A900069070843E908840F8D0025438400241862
:100AA0004D4124196D41121BAB4107E00925ED436F
:100AB0002C11521963410024401C61411C460A2537
:100AC0000026551BB441F1D270BDFFB504460D465A
:100AD00081B0243000902168880604D51022E06996
:100AE0009143216000E00120A84201DD471B00E0A6
:100AF00000270498A1697A191018081AA0612078B3
:100B0000C00602D42046FFF7F2FC002608E0039856
:100B10006268A168805D9047206A401C761C206254
:100B200004988642F3DB2078C0060AD52046FFF7FA
:100B3000DEFC06E06268A16830209047206A401C15
:100B4000206238467F1E0028F4DC07E000986268C7
:100B5000A168405D9047206A401C206228466D1EB7
:100B60000028F3DC2046FFF7D8FC2078000602D5E9
:100B7000022005B0F0BD0120FBE70000FFB50C46E8
:100B80001E468FB003CA089009914F007D0D00D119
:100B90006D1E002108460020C0460321099A8905E0
:100BA0000840002A03DA8200801840080840800DBF
:100BB00001280A9002DD0020C0430A9008980743EC
:100BC0000DD0F048F0492818484307141898002819
:100BD0001DD07542291E1DDD0A9842421BE018985F
:100BE000012802D00020302104E00020F24305E07B
:100BF0002154401CB042FBDB30460022189B0021F0
:100C000021540F998B600A60486013B0F0BDBD1B82
:100C10006D1CDFE70A9A002900DA69420BA800F090
:100C2000F5FB0BAB07CB03AB07C30899099800F0A2
:100C300059FC6B4607C30146D4480918002D0091A2
:100C40000BDDD24903980A9A49424018002303A9B0
:100C50000390684600F0B6FE08E003990A9A002364
:100C6000081803A90390684600F056FE6B4607C3B8
:100C70000004000C03D00020C043410800E01046EF
:100C8000189A002A03D00022009215461EE0751E15
:100C900005D4FFF7DDFE303262556D1EF9D5012215
:100CA0000843079602D000227F1C04E020783028F9
:100CB00001D100227F1E002A069787D01EE0112D49
:100CC00007DAFFF7C5FE303262556D1C02460A4353
:100CD000F5D1084303D00098002819D00EE0002178
:100CE000681E05E0235C625C63542254401E491C6C
:100CF0008142F7DBA81B401E07950690079A1899BA
:100D00000020A0540F98079B069A81600CC07CE7D6
:100D100011260020189059E7D21DF0B50D46044663
:100D2000D10893B0C90003C90C900D9102F060FF87
:100D300002460D98C00F01D02D2007E020688107E2
:100D400001D52B2002E04007C00F4001032A0F907D
:100D500001D0072A05DB03462946204600F012FB96
:100D60000EE12078800601D5E76900E006272846D5
:100D7000652D04D0662814D0672D69D12DE00020A0
:100D8000112F009001DB112300E07B1C0CAA03A9AA
:100D900010A8FFF7F3FE1199002610987D1C0E9104
:100DA00042E001203B460CAAC0070B9001200090B6
:100DB00003A910A8FFF7E2FE119D129810990026D2
:100DC00000280E9501D1781C0D18781B02D44642DC
:100DD0007D1C761EE81B00903AE0012F00DA012707
:100DE0000020112F009001DD112300E03B460CAAEA
:100DF00003A910A8FFF7C2FE11993D4610980026DE
:100E00000E91217809070BD40E99A94200DA0D46FC
:100E100003A9012D04DD4A19203AD27F302A06D0D9
:100E2000B84201DA011D04DA012100910FE06D1EC4
:100E3000EFE7002802DC86192D1A03E0411CA942C5
:100E400000DD0D46801B401C00900120C0070B9068
:100E50002078000705D40098A84202DB0020C04398
:100E6000009069460020C8720B98012102AF033739
:100E7000C907884225D0022010902B2011900B9892
:100E800000280BDA40420B902D20119006E00B98C1
:100E900000F039FA30317F1E0B9039701099481EDE
:100EA00000291090F3DC0B980028F0D111987F1ED8
:100EB00038702088000501D5452000E065207F1EA0
:100EC000387001A8C01BC01D0B900F98002800D0DF
:100ED000012041190098C01709180B980818A1693A
:100EE000081A401EA0612078C00602D42046FFF7F1
:100EF000FEFA0F98002805D06268A1689047206A22
:100F0000401C20622078C00625D52046FFF7EFFA66
:100F100021E0002E07DB0E98B04204DD03A86268D2
:100F2000805DA16802E06268A16830209047206A75
:100F3000761C401C20620098401E002800900AD1B8
:100F400000F01CFAC06862680168405CA1689047C4
:100F5000206A401C206228466D1E0028D9DC07E06C
:100F600062683878A1687F1C9047206A401C206224
:100F70000B99481E00290B90F2DC2046FFF7CDFAB2
:100F8000032042E601FCFFFF104D0000E1DFFFFF00
:100F9000D21DF0B504460D46D0088DB0C00046689D
:100FA00007683146384602F023FE0246F00F01D0B2
:100FB0002D2307E02068810701D52B2302E040079D
:100FC000C00F43016846002B037001D0012000E0F0
:100FD0000020032A0A9001D0072A04DB2946204674
:100FE00000F0D0F92DE12078800601D40D2500E035
:100FF000E5697000400D0D2D01904BDA300D002198
:101000000B9008460020C046032189050840002EA9
:1010100005DA82008018C20F1018401008408015B1
:10102000012801DD0020C043A9000023182906D3B0
:101030009C460A460123183A1B07D34003E00122CD
:101040001205CA4094460C31202902D33A46203971
:1010500000E032468A40002802DD002A06D119E06D
:10106000002817D10121C9078A4213D319466346C4
:101070007F185E41002806D10120C007824202D1BC
:10108000084687439E430B98310D814202D0019858
:10109000401C01902088000502D57149794402E086
:1010A0006F49794419396B460A9830221A540A98C4
:1010B0000A7C401C1A54401C0A900198002801DC4C
:1010C000302000E031201872019A0120002A02D05D
:1010D000644BD21804E072003A4302D0614A521CB9
:1010E0000192002D02DC2278120703D56A462E20D9
:1010F000507202200022864694460CE032033601EC
:10110000120F6D1E8B5C02AA13546246521C401CC7
:101110009446052A01DA002DF0DC002202AE08E038
:101120003B0F3F01CB5C521C6D1E3354401C082A00
:1011300001DA002DF4DC23689A0601D511E0401E87
:10114000704504DD3218203AD27F302AF7D00028CB
:1011500007DD3218203AD27F2E2A02D11A0700D496
:10116000401E002D03DD3E223254401C6D1E497C82
:1011700031540199401C002906DA2D21471C3154B5
:1011800001984042019003E02B21471C3154019803
:101190007D21C900884206DBFFF7B8F83030F055F2
:1011A0007F1C019101E0642808DB01986421FFF7AE
:1011B000ADF83030F0557F1C019101E00A2806DBC4
:1011C00001980A21FFF7A2F83030F0557F1C0198F2
:1011D0000A21FFF79BF83031F1550A98A1697F1C6D
:1011E0007A191018081AA0612078C00602D4204687
:1011F000FFF77DF9216A6E460A980818206204E01C
:1012000062683078A168761C90470A98401E0A9060
:10121000401CF5D12078C00602D52046FFF767F9BB
:1012200002AE09E03078761C3E280DD06268A168D5
:101230009047206A401C20627F1EF3D22046FFF7B1
:101240006CF90DB00320F0BD206A4019206203E064
:101250006268A168302090476D1EEDD3F8E700006A
:10126000582C000001FCFFFF10B54369002B02D091
:10127000C046C04601E0FFF773F9012010BD1278A7
:10128000014624310A7000224A700122ECE71168FD
:101290000022D243E8E710B54369002B02D0C046D4
:1012A000C04601E0FFF7F6F9012010BD12880146A3
:1012B000243182840022C2840122ECE711680022DA
:1012C000D243E8E7F8B516460C46054600F04EF85E
:1012D0000368FF200230C05C012807D0FF2C0FD824
:1012E000185D00280CD001202C70F8BDFF33324669
:1012F000214608331868C71828460023B847F8BDA8
:101300000020C043F8BD01468008081A02091018E1
:10131000020A1018020C1018C0088200121852009D
:10132000891A01E0401C0A390A29FBD27047754628
:1013300000F0A0FBAE46050069465346C008C00059
:10134000854618B020B5FEF7A5FF60BCB64600265E
:101350000027C0C5C0C5C0C5C0C5C0C5C0C5C0C5C3
:10136000C0C5403D490849008D46704710B500F0A2
:1013700005F8001D10BD00BFE128000000487047BF
:1013800020180020F8B51F46044601230068DB0240
:10139000032601461840072A05DB002801D017A5BF
:1013A00006E017A504E0002801D016A500E016A568
:1013B000102081432160A069C01E002FA06101D0D0
:1013C000401EA0612046FFF792F8002F09D0384652
:1013D0006268A1689047206A401C2062C01C20629D
:1013E00006E0206AFAE762682878A1686D1C9047D9
:1013F000761EF8D22046FFF790F8F8BD4E414E0019
:101400006E616E00494E4600696E6600F7B516467D
:101410008AB0334878446C4603467C33C06F5A68C0
:101420009B680DC42E487844763003AC0DC80DC4BB
:101430003720C001081837211B30FEF767FF05462B
:101440000C46803D1B3C02D56442012000E0002098
:101450000027099010E0E0070CD00C2020497843C9
:10146000794432464C3941186846012300F054FA59
:101470006B4607C364107F1C002CECD1184F7F44CF
:101480002E3F16E0E80712D02001C0190EC80691C1
:10149000089307920068F04201D1981908903246EB
:1014A000012306A903A800F037FA03AB07C36D10A8
:1014B000641C002DE6D10998002806D03246694602
:1014C000012303A800F07EFA05E0012332466946B5
:1014D00003A800F021FA0A9B07C30DB0F0BD00007D
:1014E000F4280000034640000A4610B5400D0BD01A
:1014F0000121C9070F24A40200191C036408214319
:10150000540D2143D20207E000210120F2E7D40F5D
:10151000490021435200401E0029F8DADB0FDB07A7
:10152000184310BDFFB50D46144685B04868516894
:1015300002F045FB00910190A868A16802F03FFB12
:1015400002910390A868616802F039FB029A1218B0
:101550008242029201D2012000E00020019A0B1881
:10156000D2180028019202D08A4202D903E08A42AE
:1015700001D2012000E0002000990818009068685E
:10158000A16802F01CFB029A12188242029201D258
:10159000012000E00020019A0B18D21800280192C7
:1015A00002D08A4202D903E08A4201D2012000E03F
:1015B0000020009908180090286821684000490020
:1015C000400849084018FA49471814E001994000BA
:1015D000C90F08430090019802994000C90F0843C1
:1015E0000190029803994000C90F084302900398A4
:1015F00040007F1E039000980028E7DA0898002832
:1016000001D0EC4E00E00026B74201DA012000E0F4
:101610000020002804902AD0F71BF806C00E15D031
:10162000029B2021091A039A8B401A430392029AC3
:10163000019BC2408B401A430292019A009BC24018
:101640008B4000991A430192C14000917B110DD04B
:101650006F460320C11A03D500218200B95003E070
:101660008A008100BA587A50401EF3D53746039855
:101670000299002800D00120014308980291002817
:1016800008460CD0002800D001200199019A490594
:1016900008430121D20AC902D202019200E00121CD
:1016A0000E9B0122D207012B02D0002B03D013E0A6
:1016B000002807D120E0904204D890420CD1019B31
:1016C0000B4209D0019B5918019105D10099491C81
:1016D000009101D17F1C009200280DD010210846F6
:1016E0000020C0460498002806D00F98002803D098
:1016F000082108460020C04628682168019B009AFE
:101700004840C10F0598C90739430EC009B0F0BD64
:10171000FFB587B0099A089808995368926840689D
:10172000896896460022039317469446089A1268E1
:101730005300099A5B081268520052089A1A9E4B8D
:10174000D4180A9A002A01D0352200E040220692DD
:101750000022012315460492DB07059324E0002DA7
:1017600005D175460346039E4D1BB34109D375460B
:101770006646039B491B049D9841059B7519AC4621
:101780005F4163463B4308D0059B049EDD07760816
:101790002E435B080496059301E0521E641EC50F9C
:1017A000ED0749184041521C069B9A42D7DB002D99
:1017B00004D17546039A6B1A824101D203200CE0D2
:1017C000039A0B466B404240134303D0014303D0BE
:1017D000012002E0022000E000206146019100218A
:1017E000009702910A99002905D061464002014301
:1017F000704B019102E08007002302909C4201DAC5
:10180000012000E0002007003AD01A1BD006C00ECD
:1018100015D0029D2021019C091AC5408C4025430A
:10182000029C8C4000D001242543019C0295009D20
:10183000C4408D4000992C430194C1400091541143
:101840001DD06D460221002202290CD10320001B6D
:1018500007E0002804DB8600AE59002E00D00122EC
:10186000401C0328F5DB081B02D588002A5004E041
:101870008000285810438A00A850491EE3D51C4612
:101880000A98002802980CD0002800D00120019965
:10189000019A490508430121D20AC902D2020192E4
:1018A00000E00121109B0122D207012B02D0002B66
:1018B00003D013E0002807D11FE0904204D89042E3
:1018C0000CD1019B0B4209D0019B5918019105D104
:1018D0000099491C009101D1641C009200280CD091
:1018E000102108460020C046002F06D0119800287D
:1018F00003D0082108460020C04608980999019A9B
:10190000009B006809684840C10F0798C907214338
:1019100082600AC00BB0F0BD00B585B001930092A3
:101920000A460146002302A8FFF7FCFD02A807C8EB
:1019300005B000BDFFB50A461F4685B00799019363
:1019400001230091014602A8FFF7ECFD02990398DC
:10195000049ECA0F4900D20700920F224908920242
:101960008C1A0021002800DB0C46450013486D0846
:10197000844214D3079A002A04DA441E0026104D2C
:10198000F64302E004460D460E46102108460020AC
:10199000C046002F03D0042108460020C046200581
:1019A000E90A0843009908436905F20A1143ADE6C4
:1019B00002C0FFFF013C0000FF3F0000FF070000E6
:1019C000FFFFFF7F00B585B0019300920A460146F4
:1019D000002302A8FFF79CFE02A807C8A8E7FFB5EE
:1019E0000A461F4685B007990193012300910146DD
:1019F00002A8FFF78DFE02990398049ECA0F4900C2
:101A0000D20700920F22490892028C1A0021002866
:101A100000DB0C46450011486D08844214D3079A38
:101A2000002A04DA441E00260D4DF64302E0044667
:101A30000D460E46102108460020C046002F03D058
:101A4000042108460020C0462005E90A0843009901
:101A500008436905F20A114358E60000FF07000039
:101A6000FFFFFF7F10B50446C046C0462046FEF784
:101A7000E3FB10BD004870470018002082078B0769
:101A80009A423FD170B5920F0AD0032402780B78A6
:101A9000401C491C002A33D09A4231D12042F5D152
:101AA000214EF40104C808C9951B9543254018D15F
:101AB0009A420FD104C808C9951B9543254010D1FF
:101AC0009A4207D104C808C9951B9543254008D1FF
:101AD0009A42E7D012BA1BBA01209A4200D2404281
:101AE00070BD12BA1BBA2DBA18241000E0401900BC
:101AF000E140401A05D12E00E64002D1083CF4D165
:101B0000D01A70BD02780B78401C491C002A09D0FD
:101B10009A4207D102780B78401C491C002A01D058
:101B20009A42EFD0D01A70470101010101491820F3
:101B3000ABBEFEE726000200704730B58C18027875
:101B4000401C13071B0F01D10378401C120906D15A
:101B50000278401C03E00578401C0D70491C5B1E98
:101B6000F9D101E00B70491C521EFBD1A142E6D312
:101B7000002030BD012282400348002901D00260CC
:101B8000704742607047C04628800240B0B5027A74
:101B9000032A01D1036804E043695B1E9340046893
:101BA0001B190B60037C042B02D144680C3409E040
:101BB000447A032C01D1446804E045696D1EA540B8
:101BC00044682C194C609206D218C3681343427AB9
:101BD00092071A430546143538CD006A104328434E
:101BE00020431A01103A02438A60B0BD80B52148F3
:101BF0000021016041600161C9434161C1618162AD
:101C000001638163012282640260C161416200F06C
:101C10004BFB80BD70B50C460546164E51497160B0
:101C20002068002803D02A018918FFF7AFFF6068F9
:101C3000002804D02901B2685118FFF7A7FFA16856
:101C4000012001433160A840617B012901D170610D
:101C500000E0B06130627062A17B002901D0F062C7
:101C600000E03063217B012901D1706370BDB06356
:101C700070BDC046048002400121814001480160DE
:101C80007047C04614800240002181738181016049
:101C90004160816070470000BA490A68FF239A4397
:101CA000101808607047C046B64A002903D0116872
:101CB0000143116070471168814311607047C0464D
:101CC000B0480168014A0A400260704700FF008680
:101CD00070B50B46E021234D6A5001218A03224C46
:101CE0002668164326605A1E1301204C1C432B46BF
:101CF000E0339200101858609C600E242046FFF7D5
:101D000039FF2046FFF7B8FFE82028584007FBD1ED
:101D10000E200021FFF72EFF70BDC04670B54B1E90
:101D200099008918F0220F4DA9502A46F0325060D0
:101D30000121C8030C4C26680643266018010B4B92
:101D4000034393600F242046FFF714FF2046FFF75C
:101D500093FFF82028584007FBD10F200021FFF700
:101D600009FF70BD00140020388002400380022269
:101D7000B0B58EB020200125294600F0CBFBFFF73F
:101D800035FF01AC2046FFF77FFF0020A073A5813F
:101D900005A801900E202146FFF73CFF0F202146A9
:101DA000FFF738FF0EB0B0BD10B5044600F0EEF8F6
:101DB000012210032080124961801249A180122162
:101DC000E180002121816181A181D203E281602231
:101DD0002282312262826422A2820422E2820A4AA0
:101DE0002283FD22520062838122D201A283032238
:101DF0001203E2832184618421856085218610BDE0
:101E0000AB7800005634000007050000408C704796
:101E1000C08E0840411E8841704770B58A680280B4
:101E20000A790B68DB029A184B791343828E1A43A6
:101E300082868A898B7B5B031343CA7B12031A4316
:101E40000B7C9B0013434A7C52001A438B7C134348
:101E5000C3838A8ACB7C9B0313438C7DE4021C439F
:101E6000CB7D9B0223430C7E64021C43CB6923433E
:101E70004C7E24021C4384832023CB5CDB034C8CEC
:101E80001C438B8C2343CC8C1C430B4620331D7A84
:101E9000ED0125435C7AA4012C439D7A6D01254315
:101EA000CC6A2C43DD7A2D01254345834C8E1D7C65
:101EB000ED0325431C7D2C43CD8E2543DC7E640041
:101EC0002C435D7E9E7E2E43B50125431C7F24015D
:101ED0002C435D7F6D0125439C7FA4002C43DD7F57
:101EE00025431B7EDB002B4303834023CB5A4380D7
:101EF0004223CB5A83804423CB5AC380CB6C0381CB
:101F00001B0C43818B6C83811B0CC3810B6D038283
:101F10004B6D43828B6D8382C96DC182012040036A
:101F2000824201D1FFF724FF70BD0000094A002959
:101F300000D0511C038B13400B4303837047C046F2
:101F4000044A002900D0511C438B13400B434383A8
:101F50007047C046FF7F0000491E4A424A41818EB9
:101F60000123994389188186704700000843054979
:101F70000A68054B134003430120C006184308605C
:101F80007047C04634000240FFFF00C710B504464A
:101F9000808E01218843A08610212046FFF738FF5C
:101FA0000128F9D110BD0000F0B585B00D4603241D
:101FB0002203818B114001225303994221D0130344
:101FC00099422DD000294AD1038D0188C91A019167
:101FD0002146D4060619F718039204CF029293B251
:101FE000DB1C1C4604918C4301990A1B002A39DD35
:101FF0003E469A0861D0029C02CE02C5521EFBD119
:102000005CE0D1064458A20723049B0C002A00D0B0
:102010005B1C421828461946FFF75AFE230C6FE056
:10202000D1064618018D7718234610CF0392224619
:1020300004931A40531E9A4123049B0C9B189A0048
:102040000088401A821A210C0291002A29DD002BF7
:102050003FD001CF01C55B1EFBD1029B50E00024A5
:1020600023464DE00C460092890800234C1E05D003
:10207000294604CF04C15B1C9C42FAD1009F39461B
:10208000049A91430429029C18D099006918BA0F48
:10209000BA189210039B9A1A08CE08C1521EFBD19F
:1020A0000CE001928008431E15D00020294604CF81
:1020B00004C1401C8342FAD10EE0029C230C134958
:1020C00031400288914201D2018519E00021018549
:1020D00016E0029B14E00020019B1946049A9143EC
:1020E000042901D1029B0BE080002818990F591890
:1020F0008910039A511A04CE04C0491EFBD1029BD9
:10210000A0B21904081805B0F0BDC046FF1F0000BA
:10211000F0B583B00D4603210903848B0C40468D36
:10212000012359038C4216D002951D03AC421CD0EA
:10213000002C029D66D1DB06C31801939C198B1BF2
:102140009F08D21C93085A1CBA421ED208CD08C45C
:10215000521EFBD132E0D9064018001DD11C89085F
:10216000891C2A46FFF7DAFD4CE0DB06C3189C19F0
:10217000891B8E08D11C8A08911CB14228D2029A70
:1021800001CA01C4491EFBD13CE000930026002F88
:1021900005D02B4620CB20C4761CB742FAD1038849
:1021A000019CE418BA4209D0B200029B9A18009B25
:1021B000DB1B5B1C20CA20C45B1EFBD1231D124A03
:1021C0001A40491E8A4200D90288428503B0F0BDF8
:1021D0000193002E029D06D0002708CD08C47F1C65
:1021E000BE42FAD100E000270088B142029B09D02C
:1021F00001990818B9005918921B921C08C908C007
:10220000521EFBD103B0F0BDFC3F0000B0B5044648
:10221000808E01252843A086E08B03218843E0833C
:1022200020462946FFF78CFE20462946FFF77EFE12
:10223000B0BD0000B0B5442112224252202200213C
:1022400081544161154AC2600E2383801C230360C0
:102250000183C164124B036441860A23C362114B9C
:10226000836241848023C36101231C060461DD0273
:10227000856005462035AC61EA6105221202C286FE
:102280002975297444620421C16564218165312165
:10229000416560210165D9068164B0BD000001017E
:1022A000AB785634010101010148202101607047DB
:1022B00080E200E0F0B58BB00A4641680691816883
:1022C0000791C1680891016903914169049181698D
:1022D0000991019211880090C0690590002949D0A8
:1022E000012303202C4C00221646019D07E0921C7E
:1022F0004908761C640080005B0000293AD0CF07B3
:10230000F5D00A94059C9C43EF79B7403C43059473
:10231000099C84436F7A97403C430994089C9C43F2
:10232000AF7AB7403C430894079C84432F7A974088
:102330003C430794069C9C43AF78B7403C430694CB
:10234000029004980A9CA043374610376C79BC4031
:102350000443A879B0402043049003980A9CA0430A
:10236000EC78BC4004432879B04020430A9C039099
:102370000298BCE700980699416007998160089926
:10238000C1600399016104994161099981610599CD
:10239000C1610BB0F0BDC04601000100F0B583B0D3
:1023A0000290784908680868C007774E774F304632
:1023B00000D038460A685207024606D50A46083A4F
:1023C00012681205120F521C424300920190012222
:1023D000D3030A689205950F344610D0022D1C468F
:1023E0000DD0012D0AD10A681206009C07D50A6893
:1023F0005206520F521C009CD44000E0644C0298DC
:1024000004604A684A68D207344600D03C464A68AD
:102410005207274606D50A46083A12681206120FD6
:10242000571C67434A68D206D20F3D46D5400298F2
:102430004560CA681506354603D55206520F534DFE
:10244000D5400298C560CA68100703D5072002402E
:102450004E4ED6400298066188680326064007D093
:10246000022E0098019003D0012E019400D0019714
:1024700088688006820F07D0022A019B04D0012AB7
:1024800001D1434B00E02B4688680105C917400580
:10249000400F401C0840C3400298836003B0F0BD69
:1024A0001F210140E0220240202A01D0044800E020
:1024B00002480268CA4001201040704700000240F4
:1024C0003C800D4007490B680C2293430B600428A5
:1024D00002D0082801D07047042208681043086021
:1024E0007047C0460800024080B582B000200190CD
:1024F0002320FFF7D5FF0199491C0191019900287C
:1025000001D1C80BF4D02320FFF7CAFF411E884138
:1025100002B080BD054A002903D011680143116053
:1025200070471168814311607047C0461C0002402B
:1025300080B5144A10681068C0071349084600D0D7
:10254000124813685B0706D51346083B1B681B053A
:102550001B0F5B1C584313689B059B0F0FD0022B6E
:1025600009D0012B0AD111680906090F491C01F095
:102570002BFA014603E00120C10300E004490548AD
:10258000016080BD0C00024000127A0000093D008D
:10259000409C00000400002080B5094810218161A2
:1025A0000021816001604160C16001614161C161E0
:1025B0000162416281620163FFF7BAFF80BDC046DC
:1025C00004000240B0B5174A174B984201D0144698
:1025D00000E0141D2468154DA84215D0144DA842E2
:1025E00009D0144DA8420DD1FF25AC436118012438
:1025F00024060C430FE0524D2C4009020919012416
:10260000640607E0984206D10B4D2C4009040919D5
:102610000124A4060C19984201D01460B0BD546086
:10262000B0BDC046240002400080094000000840C0
:102630000080074000000740FFFF00FBC9434165E1
:1026400070474A1E9141C26801239A435118C160E4
:1026500070470F221202C36893435918C160704734
:102660000A6802608A8842608A6882608A89CB89A7
:102670009A180B8AD2184B8AD2188B8AD218C26049
:102680000A8BCB8A1B019A184B8BD218898B511855
:10269000016570470021818001608160C160016136
:1026A00041618161818370470021C16001604160A7
:1026B0008160016241628162C16201634163816341
:1026C000C163016641668166C166016141618161E4
:1026D000C161016741678167C167016441648164C9
:1026E000C164016541658165C16502468032D16082
:1026F0009160516080228150704700687047406D42
:102700000840411E884170470160704710B53A4A41
:1027100013683A4CA0420AD0834CA0420ED1FF204D
:102720008343581801210B060343136010BD04486E
:1027300003400802C018012149064318136010BD68
:10274000FF00FFFD026B002903D001210A43026351
:10275000704702490A4002637047C046FEFF00000E
:1027600080690840411E884170470000F0B587B07D
:102770000D46044602A8FFF711FE1F480068029E9E
:102780001E498C42019405D067498C4205D107212E
:10279000084001E04005400FC6402C462D68A908BE
:1027A000304601F011F90746B000394601F00CF946
:1027B000401BC001294601F007F9801C042802D9FA
:1027C000002007B0F0BDB809019A50623F203840A0
:1027D0009062A088E1880143208908436189014310
:1027E000D06A0843D062106B05490140A0890843B4
:1027F0001063012007B0F0BD2800024000800340B4
:102800007F00FFFF0160704770B5FFB0FFB0FCB004
:102810000446FFF7FBFA208DA18D884210D069464F
:102820002046FFF7C1FB0446400103D5A1B268462C
:1028300000F09AFCA00103D5A1B2684600F074FF35
:102840007FB07FB07CB070BD70B50D460446002AE5
:102850001FD01248418800884618284601F05AF8CF
:1028600030180F494118022D06D320880918A41CDE
:10287000AD1EA8B20128F8D8280401D02078091884
:10288000080C03D089B20918080CFBD1054888430D
:1028900070BD0021022DE8D2EEE7C046801800206E
:1028A000E6B00000FFFF0000A1480178FB220A40CB
:1028B0000270704770B588B00124E0052146FFF72B
:1028C00029FE05A900250D714D718D71CD718C7298
:1028D00012480881124805901248FFF7EBFC40208F
:1028E0002146FFF717FE104E30462946FFF70EFF30
:1028F000200201A988818620039060200290E120B7
:10290000400201903046FFF731FF30462146FFF785
:1029100019FF06480470204608B070BD010300008E
:102920000800010000800B4000000340B4180020A4
:10293000F0B5022A13D3931E5B085C1C00230546E6
:102940000E4637882F80AD1CB61C921E5B1C9C4225
:10295000F7D1002A02D05A00895C8154F0BD0023CF
:10296000002AF8D1FAE70000F0B581B000905C4E83
:10297000022530462946FFF7C2FE002805D0022175
:102980003046FFF75BFE00F049FA694C20784107BA
:1029900021D55449097800070BD403291BD3002003
:1029A0002070614908706148017804220A40027071
:1029B00011E00B290FD300F095FA4B4F387800281F
:1029C00005D000F08BFE3878401E387003E0FFF72A
:1029D0006BFF00F07DFB544F387802281BD3C11EDB
:1029E000022937D22078C0064CD5404800788007AD
:1029F00048D13F4801683F4A12688A4242D1491C87
:102A00000160112000F0BAFA3B480321017000F088
:102A10009FFC052035E0207803210140032931D1B6
:102A20003248007880072DD43046FFF766FEF6491D
:102A300000220A600004F2490860401CEF49086067
:102A4000284600F09BFAF1480121017000F080FC5B
:102A50003D7017E0072815D124480078800711D170
:102A6000E6480168E64A12688A420BD1491C0160B7
:102A7000112000F083FAE5480321017000F068FCA2
:102A800009203870194C2078800708D51B490A683E
:102A90000098FFF73DFB2078FD2101402170387838
:102AA00004280DD1D74800780C2101400C2907D10A
:102AB000D94800681249363100F05AFC00F042FC57
:102AC0002078C0070AD000F0DFFC0E490A680098A1
:102AD000FFF71EFB2078FE210140217001B0F0BD00
:102AE000000007409D1800208A180020A818002028
:102AF000A418002098180020701800201808002042
:102B0000080E00200C000020F4480178002900D0B5
:102B1000704701210170F2480170EF480178FE22F0
:102B20000A4002707047C0469C1800208B18002095
:102B300090180020F0B581B0AB480168E3480088E8
:102B40008A8C52BA90420BD1A8480088CA8D13BA19
:102B50001A0F9200871A143FBEB2A548864201D9C7
:102B600001B0F0BD488C42BA488D8C8D24042018E9
:102B700000BACC8C098D0904091909BA1D0CD74C6F
:102B80002378022B21D0012B37D0002B55D16B0796
:102B9000E6D4984B1A809E4A13889E4C2380538813
:102BA00063809288A280944A1268F14B1A60EA0608
:102BB00000D577E09248002202608819A90700D06A
:102BC000401C9149086014206FE08B4B1B68E84E55
:102BD00036689E42C4D1874B1B889A42C0D10423D9
:102BE0002A4600931A4010272F40844E61D0336844
:102BF00098425ED0002AB3D154E06B07B0D47D4B2D
:102C00001A80834A1388834E338053887380928856
:102C1000B280794A1268D64B1A60EA0642D4A807F5
:102C20009ED5481C784908608B48006800047449A8
:102C30000860401C7149086047E06F4B1B68CC4C32
:102C400024689C42A54C8BD16A4B1B889A4287D141
:102C50006D4B1A68914283D169074FD4A90740D4BC
:102C6000E90600D47CE765490968884200D07BE02A
:102C7000FFF71AFE61480068614908602078C01EAD
:102C8000072868D8784400794000874403644F647B
:102C90006452555F042020709148017802220A4353
:102CA000027058E056490860042000F067F901B04E
:102CB000F0BD002A1FD1A80700D451E7481C524993
:102CC0000860FFF7F1FD002F21D1122000F056F926
:102CD0004E480221017000F03BFB0320207001B040
:102CE000F0BD042000F04AF97B48002101702170FA
:102CF0007B48402108E0002F00D131E776480021D1
:102D00000170217076483021017001B0F0BD30684B
:102D1000E4490860102000F031F9009820707048F4
:102D200001780A220A43027001B0F0BD062020702B
:102D300011E00A2020700EE0EE48002101702170A1
:102D4000ED48017804220A40027004E0102000F0EF
:102D500015F900F0C7F820780428D34B04D1E648D1
:102D6000017808220A430270380414D02078001F2A
:102D7000022810D8E04801784A070CD4264A166089
:102D800004221143017018688019186010201E4633
:102D900000F0F4F83346E80700D1E1E62078C01EE1
:102DA00007281CD8784400794000874403030608AC
:102DB000181818140720207011E0082004E01D46A0
:102DC00000F008FC2B460A202070CB480178FD2239
:102DD0000A40027003E01C4600F084F8234618689D
:102DE000401C1860102060E7681800207E18002042
:102DF000A02D00000800002074180020A418002056
:102E0000981800208B1800208C18002070180020C3
:102E1000781800208418002094180020B0B52C4C9D
:102E2000002520462946FFF70CFC20462946FFF7DF
:102E30006BFC09480168491C01602C480178491C59
:102E40000170AB480078002801D1FFF75DFE012139
:102E50002046FFF7F6FBB0BD6C180020F0B589B036
:102E6000FEF786FF8B48184901608C4817210180C6
:102E70000125A8032946FFF74DFB154E00243046D7
:102E80002146FFF79FFB3046FFF70EFC01AF3846A7
:102E9000FFF700FC5020B8800E48039030463946BA
:102EA000FFF7DEFB29023046FFF7D3FB3046294609
:102EB000FFF7C7FB8F480470AA4804708C48047061
:102EC0008D48047009B0F0BD0A000002921800207D
:102ED00000000740400D0300901800209C180020BF
:102EE0008B18002001480021017070479D180020B8
:102EF000F0B583B01D4617460C46064608980028D4
:102F000031D0E81980B263494A8802920988019158
:102F100000F000FD0299019A51180818154941184E
:102F2000022F06D330880918B61CBF1EB8B201287C
:102F3000F8D8380401D030780918022D05D320883C
:102F40000918AD1EA41C012DF9D8002D01D0207840
:102F50000918080C03D089B20918080CFBD10648DF
:102F6000884303B0F0BD0021022FDBD2E1E7C04669
:102F700080180020E6B00000FFFF0000F0B583B02D
:102F80000446E54F3F483884E748F860E4487881D4
:102F90003D483E49B961F8610025FD823C483861F1
:102FA000E54801687984E34882883A81090CB9844C
:102FB0000221019402910C4001D02C2100E0282133
:102FC000354A11600521002C009102D00B218902A5
:102FD00000E0C902B9820188FF22CBB29143408848
:102FE000C2B21204000A000680184018C0187860A7
:102FF0003846123014212A46FFF726FCB8832748AA
:1030000001883E462636304600F016FC24480188EA
:103010003846283000F010FC2248016838462A3033
:1030200000F07AFC2048016838462E3000F074FC2D
:103030003D871E487863002C0CD10098000301994D
:10304000014348BA788614210122304600F0BEF9C7
:1030500036210EE0B887164878870320400301998F
:10306000014348BA7886182101223046FFF7ECFB6D
:103070003A213960F886D4480178029A11430170E8
:1030800003B0F0BD260200000000C0A80000FF064B
:103090000800450080180020B01800209218002079
:1030A00008000020981800208C1800202DA0000097
:1030B0000204000080B5754800682221405C0828A1
:1030C00003D100F095FA012080BD002080BDC046EC
:1030D000BA4800210170A548027801700320104011
:1030E000012801D0202000E01020B5490870704769
:1030F0009C180020901800208B180020B0B586483E
:103100008849894A154B8A4C154DC2600561446156
:103110008361C2610162824941812A210160604963
:103120000B68438583498A88028102854A88C28464
:10313000098881841B0C8385A34B1C7802252543B9
:103140001D70FF23CCB29943D3B21B04120A12069E
:10315000D218511809194160B0BDC0460002C860BC
:1031600008060001A8180020F0B581B0464C206088
:10317000464E306046490860464D2860811D6D48C6
:103180000622FFF7D5FB206881894ABA0121CB02CC
:103190009A4225D0404B9A422FD1744E3278032365
:1031A00013400A02012B2AD1C389934225D1028AF6
:1031B000082A22D1428A3B4B9A421ED14902808A78
:1031C00088421AD1FFF770FB216816313648062273
:1031D000FFF7AEFB307802210143317001B0F0BD42
:1031E0003168887B452808D1088A40BA2B4A10806C
:1031F000C020C0438A8A024223D001B0F0BD2968B2
:10320000C8899042F9D1088A0828F6D1488A254B06
:103210009842F2D1888A9042EFD11C312048042490
:103220002246FFF785FB2968263168462246FFF7CC
:103230007FFB3C4800998142DFD1FFF75FFF01B07F
:10324000F0BDCF8A1A31164804242246FFF770FBDE
:1032500031681E316D4628462246FFF769FB2888F3
:103260006988090408182F498842C6D1380A0628F7
:1032700005D00128C1D1FFF71DFF0028BDD1FFF700
:1032800059FC01B0F0BDC046601800206418002051
:1032900068180020B8180020060800007E180020DA
:1032A00074180020060400008418002070B51A4825
:1032B0001A49B94A42811B4AB64B1C4C1C4D002688
:1032C0008684C160056144618361C2610662B3495D
:1032D0008A8802810A88FF23D4B29A434988CBB2F4
:1032E0001B04090A0906C918891809194160B04A5E
:1032F00013881249124CA34203D19378262B00D194
:103300001168C1842A220260090C01852E480178C7
:1033100002220A43027070BD1808002000670001F5
:10332000C8600000C0A826020067B16D0001C86037
:10333000080006047818002080180020C0A80101A9
:10334000C0A800001E480178FB220A4002707047A6
:10335000054804210170A44800210170A3480178A8
:103360000C220A43027070478A180020901800202F
:1033700010B5124A1278072A01D0042A1CD1104A2B
:1033800013781C0718D5864C2060904C2160E449C6
:1033900004240C70F7210B401370014636318C4A1F
:1033A000116008490A6810180860DE480178012297
:1033B0000A430270FFF7CCFF10BDC0469C180020E6
:1033C0008B180020A4180020A8180020F0B581B0A8
:1033D0000C46054601260027002A39460DD07448C0
:1033E0004188008800963E464718A0B200F092FA45
:1033F00038183746009E224941182E40002C08D02C
:10340000002E06D0641E681C2A781702820703D19A
:1034100008E02846820705D0022C03D302888918C9
:10342000A41E801C082C0AD302680023511859419D
:103430004268891859410830083C072CF4D88AB2F0
:10344000090C8918022C05D302888918A41E801C37
:10345000012CF9D8012C01D1007800E0002038437C
:10346000401881B2000C401881B2000C4118002EA7
:1034700001D008BA010C0348884301B0F0BDC04632
:10348000E6B00000FFFF0000F0B583B0404E8A4870
:103490008A49F16030618A487081BF4881883181F2
:1034A0000188FF22CBB291434088C2B21204000AC5
:1034B000000680184018C0187060394D29883046C1
:1034C0001430283189B200F0B7F9364801888A1CD7
:1034D00002800B02491C0904090E5918F18291B2AD
:1034E000314A4A43510C032901D301210180784814
:1034F000308478482D49B161F0612D4800687084AE
:10350000000CB0843046123014210291002422466F
:10351000FFF79AF9B083274801883046263001909A
:1035200000F08AF9244801883046283000F084F9F8
:103530002248016830462A3000F0EEF92048016840
:1035400030462E3000F0E8F934871E4870631E487C
:1035500070861E4807682D68012000900198394642
:10356000029A2B46FFF7C4FCF086002D06D00024FB
:10357000385B31194887A41CAC42F9D3002C02D027
:10358000385BA119488712480068306003B0F0BD6D
:103590000C0000200067B16DC860000078180020A2
:1035A000A018002000000020682000000000FF0696
:1035B0008018002092180020080000209818002091
:1035C0008C1800202DA0000050100000BC18002016
:1035D000AC18002004480021017004480178F3224F
:1035E0000A40111D017070479D180020901800209E
:1035F000F0B581B02F4F30483049F960386130481C
:103600007881654881883981172189010B461C33EF
:103610002C4A12889A4201D81C3A11468CB2214693
:103620001C31294A11600288FF23D5B29A43408891
:10363000C3B21B04000A0006C01880184019786045
:1036400089B23846143000F0F7F820480568688AD7
:103650001F493984524909680A0CBA8479841D4982
:103660001D4ABA61F961F8823846123014210026E9
:103670003246FFF7E9F83E85FE84E98C7985B88308
:10368000288DB88538462E302A3529462246FFF740
:103690004FF921460831384626303246FFF796FE6C
:1036A00038852A343C601F48017802220A430270A0
:1036B00001B0F0BD18080020080045000067B16D9A
:1036C000C86000007E180020B01800206418002098
:1036D000260200000000C0A80000FF0180B51048CD
:1036E000007804281BD8C0467844007940008744FD
:1036F0000205090D1100FFF7D9FD80BD0220FFF77B
:103700003DFC80BD1220FFF739FC80BD1120FFF782
:1037100035FC80BD0348017801220A43027080BD58
:1037200070180020A8180020B0B582B0194D28608C
:10373000811D19480622FFF7FBF8C120C000296847
:103740008A89824224D101200002CA8982421FD183
:103750000A8A082A1CD14A8A104B9A4218D18A8AAE
:10376000824215D11C310E4804242246FFF7E0F8AE
:103770002968263101AD28462246FFF7D9F8288866
:103780006988090408180749884201D1FFF7B6FC87
:1037900002B0B0BDB8180020781800200604000060
:1037A00074180020C0A8260283B070B51D4EB54421
:1037B00004461E48684401601D48684402601D4874
:1037C00068440360194B6B44029303AD134E2846C3
:1037D00031462246FCF770FD0446A81900214170CD
:1037E0000F480078002802D0012C04DA0BE0FFF724
:1037F00061F8012C07DB03AD2646287800F078F845
:103800006D1C761EF9D10D2000F072F82046064E90
:10381000B54470BC02BC03B00847C046FE070000B8
:10382000B4180020F4F7FFFF0C0800001C0800008B
:1038300020080000240800004170090A0170704748
:10384000F0B599B00646FEF73BFA032004070027BF
:10385000204600943946FEF789FB202001252946A1
:10386000FEF758FE0420FEF72DFEFEF73DFE204633
:103870003946FEF77BFB3846FEF70EFA2806294646
:10388000FEF712FA2046FEF78FFA01AC2046FEF74B
:10389000D1FC3F2027547079317909020818402162
:1038A0006052A5740E202071A782657470783178FB
:1038B00009020818214640318880F078B278120257
:1038C0001018488009480390009E30462146FEF7B4
:1038D000A4FAFFF7C3FA30462946FEF73DFB30460F
:1038E000FEF794FC284619B0F0BDC046DC05000088
:1038F000B0B50446064D20212846FEF731FF0128C9
:10390000F9D0E1B22846FEF77DFF2046B0BDC046A3
:103910000000034040BA7047C1700A0A82700A0C66
:103920004270090E0170704784B002A81E49818060
:103930001E4902911E490A681E4B13430B601E4E1E
:10394000F16880273943F160716839437160012162
:103950008903B2690A43B26131683943316001A910
:1039600000220A8069460A70FFF76AFF03200407F5
:10397000124D03E00198401C01A908802046FEF783
:1039800043FF2046FEF7F0FF01A80088A842F1D1CE
:103990000BA0FFF709FF3068784030600098401CAA
:1039A00069460870E6E7C046BBCC0000622662AA02
:1039B0001C0002404000800100000C40FFFF00009E
:1039C000424C494E4B00000043088B421AD3002260
:1039D00003098B4279D3030A8B425ED3030B8B42DC
:1039E00042D3030C8B4227D30902FF2212BA030CE5
:1039F0008B4202D31212090203D0030B8B4233D342
:103A00001AE0D3E0411A8041401C704703460B4343
:103A100071D443088B42F5D3002203098B4254D35F
:103A2000030A8B4239D3030B8B421DD3030C8B4209
:103A300002D394466EE0090AC30B8B4201D3CB0339
:103A4000C01A5241830B8B4201D38B03C01A5241DF
:103A5000430B8B4201D34B03C01A5241030B8B42E1
:103A600001D30B03C01A5241C30A8B4201D3CB02CC
:103A7000C01A5241830A8B4201D38B02C01A5241B1
:103A8000430A8B4201D34B02C01A5241030A8B42B4
:103A900001D30B02C01A5241CDD2C3098B4201D3CC
:103AA000CB01C01A524183098B4201D38B01C01A4A
:103AB000524143098B4201D34B01C01A52410309C1
:103AC0008B4201D30B01C01A5241C3088B4201D370
:103AD000CB00C01A524183088B4201D38B00C01A1D
:103AE000524143088B4201D34B00C01A5241411A44
:103AF000524110007047CA0F00D04942031000D352
:103B00004042534000229C4603098B422DD3030AB6
:103B10008B4212D38901FC2212BA030A8B420CD3C6
:103B2000890192118B4208D3890192118B4204D3EF
:103B3000890137D0921100E08909C3098B4201D372
:103B4000CB01C01A524183098B4201D38B01C01AA9
:103B5000524143098B4201D34B01C01A5241030920
:103B60008B4201D30B01C01A5241C3088B4201D3CF
:103B7000CB00C01A524183088B4201D38B00C01A7C
:103B80005241D9D243088B4201D34B00C01A524153
:103B9000411A00D201465241104663465B1000D3E1
:103BA0004042704763465B1000D3404201B500219C
:103BB000004201D0C9430846C046C04602BDF8B520
:103BC000040C8BB2264682B25E43104658430D0C5D
:103BD000370C360400218019164679416E43370CA4
:103BE00036048019264679416E438919F8BD0000D4
:103BF0004900CA020243100000D004204A0D01D03F
:103C000001221043044A490D914201D10221084387
:103C1000012800D105207047FF07000030380A282E
:103C200001D20120704700207047000010B5002924
:103C30000AD00878002807D005487844FDF71EFF11
:103C4000002801D0002010BD0248784410BD0000BB
:103C5000860100007E01000010B500290AD0087816
:103C6000002807D005487844FDF708FF002801D058
:103C7000002010BD0248784410BD0000760100000D
:103C80006E01000003B402487844844603BC6047D8
:103C90008DD0FFFF03B402487844844603BC6047DC
:103CA000F5D2FFFF00000000000000003031323389
:103CB0003435363738394142434445464030580060
:103CC0003031323334353637383961626364656692
:103CD00040307800040000080000000000000002EE
:103CE0000001000010303132333435363738396155
:103CF000626364656678700030313233343536374C
:103D000038394142434445465850000002400000C3
:103D1000000000A00000000005400000000000C8F6
:103D2000000000000C4000000000409C000000006B
:103D3000194000000020BCBE00000000344000001C
:103D4000BFC91B8E00000004B5400000504BCFD00F
:103D50006607E2CF010000006C4100003E8251AADC
:103D6000DFEEA73401000000D9420000DCB5A0E27C
:103D70003A301F97FFFFFFFFB4450000FD25A0C8A4
:103D8000E9A3C14FFFFFFFFFFF3F000000000080DD
:103D900000000000FF3F0000000000800000000065
:103DA0000040000000000020001800003A1B000046
:103DB0003840000000180020C0200000040100006E
:103DC0001C00000043000000F8FFFFFF0C00000093
:103DD0000E0000000F0000002E0000001001000087
:103DE00043000000F8FFFFFF0040404040404040DB
:103DF00040404141414141404040404040404040BE
:103E00004040404040404040400502020202020261
:103E100002020202020202020220202020202020B0
:103E200020202002020202020202909090909090C4
:103E30001010101010101010101010101010101082
:103E400010101010020202020202888888888888F6
:103E500008080808080808080808080808080808E2
:103E600008080808020202024000000000000000EA
:103E70000000000000000000000000000000000042
:103E80000000000000000000000000000000000032
:103E90000000000000000000000000000000000022
:103EA0000000000000000000000000000000000012
:103EB0000000000000000000000000000000000002
:103EC00000000000000000000000000000000000F2
:103ED00000000000000000000000000000000000E2
:103EE00000000000000000000000000000000000D2
:103EF00000000000000000000000000000000000C2
:103F000000000000000000000000000000000000B1
:103F100000000000000000000000000000000000A1
:103F20000000000000000000000000000000000091
:103F30000000000000000000000000000000000081
:103F40000000000000000000000000000000000071
:103F50000000000000000000000000000000000061
:103F60000000000000000000000000000000000051
:103F70000000000000000000000000000000000041
:103F80000000000000000000000000000000000031
:103F90000000000000000000000000000000000021
:103FA0000000000000000000000000000000000011
:103FB0000000000000000000000000000000000001
:103FC00000000000000000000000000000000000F1
:103FD00000000000000000000000000000000000E1
:103FE00000000000000000000000000000000000D1
:103FF00000000000000000000000000000000000C1
:10400000520105FF127A001701FF01FF01FF01FFB6
:1040100001FF01FF01FF01FF01FF01FF01FF01FFA0
:1040200001FF01FF01FF01FF01FF01FF01FF01FF90
:0840300001FF01FF01FF01285F
:0400000500000245B0
:00000001FF
