:020000040000FA
:10000000702800207D0200008502000087020000A9
:1000100000000000000000000000000000000000E0
:100020000000000000000000000000008902000045
:1000300000000000000000008B0200008D020000A4
:100040008F02000091020000930200009502000060
:1000500097020000990200009B0200009D02000030
:100060009F020000A1020000A3020000A502000000
:10007000A7020000A9020000AB020000AD020000D0
:10008000AF020000B1020000B3020000B5020000A0
:10009000B7020000B9020000BB020000BD02000070
:1000A000BF0200000000000000000000C1020000CC
:1000B000C3020000C5020000C7020000C902000020
:1000C00000F002F800F0AFF80CA030C8083824188F
:1000D0002D18671EA246AB4654465D46AC4201D180
:1000E00000F0A1F87E460F3EB6460FCC0126334203
:1000F00000D0FB1A3343A246AB4618474C2E0000F3
:100100006C2E00000023002400250026103A01D3A5
:1001100078C1FBD8520700D330C100D50B607047BF
:1001200010B56E2902D100F0F9FA10BD702902D184
:1001300000F03BFC10BD662902D102F077FE10BD35
:10014000652902D102F072FE10BD672902D102F0CA
:100150006DFE10BD612902D102F070FE10BD036872
:100160001B0A01D380231943692902D100F0A0FAA8
:1001700010BD642902D100F09BFA10BD752902D18F
:1001800000F096FA10BD6F2902D100F0B9FB10BD46
:10019000782902D100F0F6FB10BDE92902D100F068
:1001A00055FB10BDE42902D100F050FB10BDF5292C
:1001B00002D100F04BFB10BDEF2902D100F0ACFBE7
:1001C00010BDF82902D100F0EBFB10BD0368DB097C
:1001D00001D380231943632902D101F0CEF810BD69
:1001E000732902D101F0D1F810BDE32902D101F049
:1001F000DBF810BDF32902D101F0DEF810BD0020BC
:1002000010BD1FB501F038F904000020002102F0F4
:10021000F7FD401C60600020002102F0DBFDE06083
:100220001FBD10B510BD01F000F91146FFF7E9FF41
:1002300002F056FC01F094FC03B4FFF7F2FF03BC9C
:1002400001F0F2FC70B505460C46164602E00FCCF4
:100250000FC5103E102EFAD2082E02D303CC03C5D0
:10026000083E042E07D301CC01C5361F03E02178D8
:100270002970641C6D1C761EF9D270BD164880472B
:1002800016480047FEE7FEE7FEE7FEE7FEE7FEE76B
:10029000FEE7FEE7FEE7FEE7FEE7FEE7FEE7FEE736
:1002A000FEE7FEE7FEE7FEE7FEE7FEE7FEE7FEE726
:1002B000FEE7FEE7FEE7FEE7FEE7FEE7FEE7FEE716
:1002C000FEE7FEE7FEE7FEE7FEE70000044805491B
:1002D000054A064B7047000061240000C100000081
:1002E000700800207028002070180020701800206E
:1002F0007CB51D4616460C00009001D00019401E2A
:10030000084B7B442A4669460190304600F01FFAAC
:10031000002C054603D06946002000F02BFA284641
:100320007CBD000079040000F8B5042A2CD38307B3
:1003300012D00B78491C0370401C521E83070BD04F
:100340000B78491C0370401C521E830704D00B78A5
:10035000491C0370401C521E8B079B0F05D0C91A05
:10036000DF002023DE1B08C90AE0FFF76BFFF8BDA2
:100370001D4608C9FD401C46B4402C4310C0121F46
:10038000042AF5D2F308C91A521EF0D40B78491C7E
:100390000370401C521EEAD40B78491C0370401CA9
:1003A000012AE4D409780170F8BD01E004C0091FF6
:1003B0000429FBD28B0701D50280801CC90700D01D
:1003C0000270704700290BD0C30702D00270401C96
:1003D000491E022904D3830702D50280801C891E8E
:1003E000E3E70022EEE70022DFE700000022030936
:1003F0008B4273D3030A8B4258D3030B8B423CD3FB
:10040000030C8B4221D312E003460B437FD400221E
:1004100043088B4274D303098B425FD3030A8B4298
:1004200044D3030B8B4228D3030C8B420DD3090218
:10043000FF2212BA030C8B4202D31212090265D0BA
:10044000030B8B4219D300E0090AC30B8B4201D383
:10045000CB03C01A5241830B8B4201D38B03C01ACA
:100460005241430B8B4201D34B03C01A5241030B41
:100470008B4201D30B03C01A5241C30A8B4201D3F2
:10048000CB02C01A5241830A8B4201D38B02C01A9D
:100490005241430A8B4201D34B02C01A5241030A14
:1004A0008B4201D30B02C01A5241CDD2C3098B42F9
:1004B00001D3CB01C01A524183098B4201D38B0176
:1004C000C01A524143098B4201D34B01C01A524119
:1004D00003098B4201D30B01C01A5241C3088B425E
:1004E00001D3CB00C01A524183088B4201D38B0049
:1004F000C01A524143088B4201D34B00C01A5241EB
:10050000411A00D201465241104670475DE0CA0FC1
:1005100000D04942031000D3404253409C46002281
:1005200003098B422DD3030A8B4212D38901FC228B
:1005300012BA030A8B420CD3890192118B4208D361
:10054000890192118B4204D389013AD0921100E0C3
:100550008909C3098B4201D3CB01C01A52418309D7
:100560008B4201D38B01C01A524143098B4201D304
:100570004B01C01A524103098B4201D30B01C01A2F
:100580005241C3088B4201D3CB00C01A52418308A9
:100590008B4201D38B00C01A5241D9D243088B42FF
:1005A00001D34B00C01A5241411A00D201465241B8
:1005B000104663465B1001D34042002B00D54942F0
:1005C000704763465B1000D3404201B504490028E0
:1005D00002DC491C084000E00846C046C04602BD97
:1005E000FFFFFF7F70477047704770B5044685690D
:1005F0000068C10601D5302600E02026C00707D0DC
:1006000070BD62683046A1689047206A401C206235
:100610006D1EF6D570BD70B5044685690078C007BB
:1006200007D170BD6268A16820209047206A401CF5
:1006300020626D1EF6D570BD09684A0501D540B22D
:100640007047C905FCD500B2704709684A0501D555
:10065000C0B27047C905FCD580B2704770B50C4672
:100660000546012A05D02878800600D5EA690023CE
:1006700002E0012305E05B1C934202D2E05C00280B
:10068000F9D1A869E618C01AA861286AC0182862BA
:100690002846FFF7AAFF04E06A682078A968641C6E
:1006A0009047B442F8D32846FFF7B5FF70BD00006D
:1006B000F7B5002575291068009914A611D0FFF729
:1006C000BBFF002802DA404211A608E00099096841
:1006D0008A0701D50FA602E0490704D50EA6012519
:1006E00001E0FFF7B2FF009F0024243704E000F090
:1006F00088FE30313955641C0028F8D12B4632462B
:100700002146009800F05FFAFEBD000000000000E6
:100710002D0000002B00000020000000116802687E
:10072000006A530501D5087009E0D30501D508809A
:1007300005E0130602D5C21705C100E008600120DC
:100740007047000001694A1C02610878704700B5D3
:100750008FB00291002105910549019379440391DD
:1007600011460490684600F02DF90FB000BD00005E
:10077000E5FFFFFF0A681070521C0A6070470CC941
:1007800008399A4202D2531C0B6010707047000067
:10079000F7B50446154686B02B487844002703C8B1
:1007A0003E460090019111E007986A467100415A57
:1007B00002A800F005FE411C07D02178890603D568
:1007C000E269391891420ED83F18761C20788006CD
:1007D00002D5E069B84206DDAE42E5DB079871005C
:1007E000405A0028E0D1A069C01BA0612046FFF755
:1007F000FCFE154878445A3803C800900020019147
:1008000016E041006A460798415A02A800F0D8FD58
:100810000590401C0AD0002505E0626802A8A16886
:10082000405D90476D1C05988542F6D30498401CA6
:10083000B0420490E5DB206AC01920622046FFF731
:10084000EAFE09B0F0BD0000AE260000F7B5D21DEB
:100850000025D20815A6D200F52905CA11D0002A14
:1008600005DA00214042914111A60A4608E00099AC
:1008700009688B0701D50FA602E0490701D50EA62E
:1008800001251146009F0024243704E000F05EF9A2
:1008900030323A55641C02460A43F7D12B463246A1
:1008A0002146009800F08FF9FEBD00000000000016
:1008B0002D0000002B0000002000000070B5044651
:1008C0000021243408E05507D2086D0F30356554F7
:1008D0005D072A43DB08491C15461D43F3D1046814
:1008E000002310A2250708D520252C400C4304D056
:1008F000C46901230CA2641EC46100F064F970BDD8
:1009000010B5044621461068FFF79FFE00230246FB
:100910002046FFF7D3FF10BDD21DD108C9000CC976
:10092000CCE700000000000030000000F8B50F46E2
:100930000188090502D5224C7C4402E0204C7C440D
:100940000E3405460021243508E016071209360F3B
:10095000A65D6E541E0732431B09491C16461E43F2
:10096000F3D1224604780023240705D5702F06D042
:10097000002901D00223113200F025F9F8BD01232E
:100980001032F9E770B504460D4621461068FFF7AE
:100990005CFE0023024629462046FFF7C7FF70BDD4
:1009A000D21DD308DB000CCBC0E730B40368202491
:1009B0001268234303600823C36130BC0023B5E7FA
:1009C00018250000F3B50446002081B020622046BF
:1009D000E1688847002872D0252802D06268A168A3
:1009E000ABE0594F00267F442046E1688847202825
:1009F000054608DB312D06D278192038007800280A
:100A000001D00643F0E7B00701D50420864300205B
:100A1000E0610746A0612A2D0AD0284602F0D2F9EB
:100A2000002827D0B8000019303D0090856119E0FA
:100A30000298BA00121902C8916102902046E1683A
:100A40008847012F054617D1E06900281FDA2020CA
:100A500086431CE000980A218069484300994019A8
:100A6000303888612046E1688847054602F0AAF9D7
:100A70000028EFD1012F0AD02E2D08D12046E168A1
:100A800088470546202006437F1C022FC3DBA06950
:100A9000002803DA4042A06101200643F00701D09C
:100AA000102086436C2D0BD0682D09D04C2D3CD0E6
:100AB0006A2D38D0742D38D07A2D36D016E040E02B
:100AC000E1682F4620468847B842054609D16C2F79
:100AD00029D001208002E168064320468847054668
:100AE00004E06C2F1DD0FF2001300643002D28D0DC
:100AF00028464138192803D80120C0020643203572
:100B0000204626602946029A1646FFF709FB002870
:100B100010D001280BD0F61DF008C000083002905C
:100B200055E74020E1E78020D5E70020D3E7361DD8
:100B300002964CE762682846A1689047206A401CEC
:100B400044E7206AFEBD0000922400000B4670B509
:100B5000024689078008084319469D08141AA941CE
:100B600025090807054308092C194841250A0106EB
:100B70000D43010A2C194141200C0D0428430D0C92
:100B800000194D41002140194D41C0086907084333
:100B9000E908840F8D002543840024184D41241951
:100BA0006D41121BAB4107E00925ED432C11521991
:100BB00063410024401C61411C460A250026551B48
:100BC000B441F1D270BDFFB504460D4681B024306A
:100BD00000902168880604D51022E06991432160C5
:100BE00000E00120A84201DD471B00E00027049837
:100BF000A1697A191018081AA0612078C00602D4D9
:100C00002046FFF7F2FC002608E003986268A1681E
:100C1000805D9047206A401C761C206204988642C2
:100C2000F3DB2078C0060AD52046FFF7DEFC06E09D
:100C30006268A16830209047206A401C20623846D4
:100C40007F1E0028F4DC07E000986268A168405D20
:100C50009047206A401C206228466D1E0028F3DC65
:100C60002046FFF7D8FC2078000602D5022005B008
:100C7000F0BD0120FBE70000FFB50C461E468FB01B
:100C800003CA089009914F007D0D00D16D1E00210F
:100C900008460020C0460321099A89050840002A19
:100CA00003DA8200801840080840800D01280A906D
:100CB00002DD0020C0430A90089807430DD0F04899
:100CC000F049281848430714189800281DD0754289
:100CD000291E1DDD0A9842421BE01898012802D007
:100CE0000020302104E00020F24305E02154401CA4
:100CF000B042FBDB30460022189B002121540F99A3
:100D00008B600A60486013B0F0BDBD1B6D1CDFE74F
:100D10000A9A002900DA69420BA800F0F5FB0BAB38
:100D200007CB03AB07C30899099800F059FC6B4641
:100D300007C30146D4480918002D00910BDDD249A4
:100D400003980A9A49424018002303A90390684671
:100D500000F0B6FE08E003990A9A0023081803A9D8
:100D60000390684600F056FE6B4607C30004000C73
:100D700003D00020C043410800E01046189A002A22
:100D800003D00022009215461EE0751E05D4FFF721
:100D9000DDFE303262556D1EF9D5012208430796FB
:100DA00002D000227F1C04E02078302801D10022EC
:100DB0007F1E002A069787D01EE0112D07DAFFF765
:100DC000C5FE303262556D1C02460A43F5D1084318
:100DD00003D00098002819D00EE00021681E05E01D
:100DE000235C625C63542254401E491C8142F7DB41
:100DF000A81B401E07950690079A18990020A0543A
:100E00000F98079B069A81600CC07CE71126002092
:100E1000189059E7D21DF0B50D460446D10893B09D
:100E2000C90003C90C900D9101F0B6FF02460D9860
:100E3000C00F01D02D2007E02068810701D52B20AD
:100E400002E04007C00F4001032A0F9001D0072A9B
:100E500005DB03462946204600F012FB0EE1207810
:100E6000800601D5E76900E006272846652D04D0F5
:100E7000662814D0672D69D12DE00020112F009035
:100E800001DB112300E07B1C0CAA03A910A8FFF7CB
:100E9000F3FE1199002610987D1C0E9142E001206E
:100EA0003B460CAAC0070B900120009003A910A894
:100EB000FFF7E2FE119D12981099002600280E956A
:100EC00001D1781C0D18781B02D446427D1C761E79
:100ED000E81B00903AE0012F00DA01270020112FD3
:100EE000009001DD112300E03B460CAA03A910A8E5
:100EF000FFF7C2FE11993D46109800260E91217809
:100F000009070BD40E99A94200DA0D4603A9012D59
:100F100004DD4A19203AD27F302A06D0B84201DADD
:100F2000011D04DA012100910FE06D1EEFE700289A
:100F300002DC86192D1A03E0411CA94200DD0D4692
:100F4000801B401C00900120C0070B9020780007F8
:100F500005D40098A84202DB0020C04300906946F7
:100F60000020C8720B98012102AF0337C9078842DD
:100F700025D0022010902B2011900B9800280BDA1E
:100F800040420B902D20119006E00B9800F039FAAA
:100F900030317F1E0B9039701099481E0029109037
:100FA000F3DC0B980028F0D111987F1E3870208850
:100FB000000501D5452000E065207F1E387001A89E
:100FC000C01BC01D0B900F98002800D001204119B4
:100FD0000098C01709180B980818A169081A401E34
:100FE000A0612078C00602D42046FFF7FEFA0F98D1
:100FF000002805D06268A1689047206A401C2062E2
:101000002078C00625D52046FFF7EFFA21E0002E14
:1010100007DB0E98B04204DD03A86268805DA1681A
:1010200002E06268A16830209047206A761C401C6C
:1010300020620098401E002800900AD100F01CFA9F
:10104000C06862680168405CA1689047206A401CE3
:10105000206228466D1E0028D9DC07E062683878D7
:10106000A1687F1C9047206A401C20620B99481E93
:1010700000290B90F2DC2046FFF7CDFA032042E670
:1010800001FCFFFF104D0000E1DFFFFFD21DF0B5B6
:1010900004460D46D0088DB0C0004668076831464A
:1010A000384601F079FE0246F00F01D02D2307E00B
:1010B0002068810701D52B2302E04007C00F4301C0
:1010C0006846002B037001D0012000E00020032AB5
:1010D0000A9001D0072A04DB2946204600F0D0F907
:1010E0002DE12078800601D40D2500E0E56970002F
:1010F000400D0D2D01904BDA300D00210B9008466C
:101100000020C046032189050840002E05DA820030
:101110008018C20F1018401008408015012801DD0A
:101120000020C043A9000023182906D39C460A4684
:101130000123183A1B07D34003E001221205CA40DD
:1011400094460C31202902D33A46203900E0324639
:101150008A40002802DD002A06D119E0002817D1B4
:101160000121C9078A4213D3194663467F185E419D
:10117000002806D10120C007824202D108468743D9
:101180009E430B98310D814202D00198401C019082
:101190002088000502D57149794402E06F497944FD
:1011A00019396B460A9830221A540A980A7C401C56
:1011B0001A54401C0A900198002801DC302000E0FD
:1011C00031201872019A0120002A02D0644BD218F3
:1011D00004E072003A4302D0614A521C0192002D91
:1011E00002DC2278120703D56A462E2050720220B4
:1011F0000022864694460CE032033601120F6D1E23
:101200008B5C02AA13546246521C401C9446052A69
:1012100001DA002DF0DC002202AE08E03B0F3F01B6
:10122000CB5C521C6D1E3354401C082A01DA002D81
:10123000F4DC23689A0601D511E0401E704504DDF8
:101240003218203AD27F302AF7D0002807DD321832
:10125000203AD27F2E2A02D11A0700D4401E002D38
:1012600003DD3E223254401C6D1E497C31540199ED
:10127000401C002906DA2D21471C315401984042B8
:10128000019003E02B21471C315401987D21C900B6
:10129000884206DBFFF7B8F83030F0557F1C01912B
:1012A00001E0642808DB01986421FFF7ADF83030D5
:1012B000F0557F1C019101E00A2806DB01980A2104
:1012C000FFF7A2F83030F0557F1C01980A21FFF794
:1012D0009BF83031F1550A98A1697F1C7A191018D2
:1012E000081AA0612078C00602D42046FFF77DF9D5
:1012F000216A6E460A980818206204E06268307815
:10130000A168761C90470A98401E0A90401CF5D1AF
:101310002078C00602D52046FFF767F902AE09E043
:101320003078761C3E280DD06268A1689047206A0C
:10133000401C20627F1EF3D22046FFF76CF90DB0EF
:101340000320F0BD206A4019206203E06268A168B2
:10135000302090476D1EEDD3F8E70000041D00001B
:1013600001FCFFFF10B54369002B02D0C046C04608
:1013700001E0FFF773F9012010BD12780146243116
:101380000A7000224A700122ECE711680022D24361
:10139000E8E710B54369002B02D0C046C04601E023
:1013A000FFF7F6F9012010BD12880146243182842E
:1013B0000022C2840122ECE711680022D243E8E750
:1013C000F8B516460C46054600F04EF80368FF20B7
:1013D0000230C05C012807D0FF2C0FD8185D002810
:1013E0000CD001202C70F8BDFF3332462146083363
:1013F0001868C71828460023B847F8BD0020C04326
:10140000F8BD01468008081A02091018020A1018CF
:10141000020C1018C008820012185200891A01E04C
:10142000401C0A390A29FBD27047754600F0A0FB20
:10143000AE46050069465346C008C000854618B050
:1014400020B5FEF743FF60BCB64600260027C0C5A6
:10145000C0C5C0C5C0C5C0C5C0C5C0C5C0C5403D6C
:10146000490849008D46704710B500F005F8001D89
:1014700010BD00BF8D1900000048704720080020F3
:10148000F8B51F46044601230068DB020326014627
:101490001840072A05DB002801D017A506E017A58C
:1014A00004E0002801D016A500E016A51020814315
:1014B0002160A069C01E002FA06101D0401EA06164
:1014C0002046FFF792F8002F09D038466268A168DD
:1014D0009047206A401C2062C01C206206E0206AFF
:1014E000FAE762682878A1686D1C9047761EF8D2EA
:1014F0002046FFF790F8F8BD4E414E006E616E0039
:10150000494E4600696E6600F7B516468AB0334804
:1015100078446C4603467C33C06F5A689B680DC4A0
:101520002E487844763003AC0DC80DC43720C00176
:10153000081837211B30FEF767FF05460C46803D33
:101540001B3C02D56442012000E0002000270990E6
:1015500010E0E0070CD00C20204978437944324653
:101560004C3941186846012300F054FA6B4607C312
:1015700064107F1C002CECD1184F7F442E3F16E0E6
:10158000E80712D02001C0190EC8069108930792EF
:101590000068F04201D1981908903246012306A94B
:1015A00003A800F037FA03AB07C36D10641C002DCD
:1015B000E6D10998002806D032466946012303A8DF
:1015C00000F07EFA05E001233246694603A800F0E8
:1015D00021FA0A9B07C30DB0F0BD0000A01900005E
:1015E000034640000A4610B5400D0BD00121C90743
:1015F0000F24A40200191C0364082143540D214345
:10160000D20207E000210120F2E7D40F4900214374
:101610005200401E0029F8DADB0FDB07184310BD2B
:10162000FFB50D46144685B04868516801F09BFB34
:1016300000910190A868A16801F095FB02910390C8
:10164000A868616801F08FFB029A12188242029228
:1016500001D2012000E00020019A0B18D2180028C6
:10166000019202D08A4202D903E08A4201D20120CB
:1016700000E000200099081800906868A16801F057
:1016800072FB029A12188242029201D2012000E0FB
:101690000020019A0B18D2180028019202D08A4229
:1016A00002D903E08A4201D2012000E00020009923
:1016B000081800902868216840004900400849083F
:1016C0004018FA49471814E001994000C90F08432F
:1016D0000090019802994000C90F084301900298B8
:1016E00003994000C90F08430290039840007F1EF1
:1016F000039000980028E7DA0898002801D0EC4E03
:1017000000E00026B74201DA012000E000200028B6
:1017100004902AD0F71BF806C00E15D0029B20219A
:10172000091A039A8B401A430392029A019BC24002
:101730008B401A430292019A009BC2408B40009951
:101740001A430192C14000917B110DD06F460320D6
:10175000C11A03D500218200B95003E08A0081003C
:10176000BA587A50401EF3D537460398029900289C
:1017700000D00120014308980291002808460CD0AF
:10178000002800D001200199019A49050843012150
:10179000D20AC902D202019200E001210E9B01226D
:1017A000D207012B02D0002B03D013E0002807D171
:1017B00020E0904204D890420CD1019B0B4209D00A
:1017C000019B5918019105D10099491C009101D143
:1017D0007F1C009200280DD0102108460020C04632
:1017E0000498002806D00F98002803D00821084646
:1017F0000020C04628682168019B009A4840C10F1C
:101800000598C90739430EC009B0F0BDFFB587B0D0
:10181000099A0898089953689268406889689646BA
:101820000022039317469446089A12685300099AB7
:101830005B081268520052089A1A9E4BD4180A9AF2
:10184000002A01D0352200E0402206920022012326
:1018500015460492DB07059324E0002D05D175465B
:101860000346039E4D1BB34109D375466646039B51
:10187000491B049D9841059B7519AC465F41634621
:101880003B4308D0059B049EDD0776082E435B088A
:101890000496059301E0521E641EC50FED0749181A
:1018A0004041521C069B9A42D7DB002D04D175465D
:1018B000039A6B1A824101D203200CE0039A0B4673
:1018C0006B404240134303D0014303D0012002E0A8
:1018D000022000E000206146019100210097029162
:1018E0000A99002905D0614640020143704B0191DD
:1018F00002E08007002302909C4201DA012000E010
:10190000002007003AD01A1BD006C00E15D0029D49
:101910002021019C091AC5408C402543029C8C4023
:1019200000D001242543019C0295009DC4408D40B8
:1019300000992C430194C140009154111DD06D4673
:101940000221002202290CD10320001B07E00028FD
:1019500004DB8600AE59002E00D00122401C032873
:10196000F5DB081B02D588002A5004E080002858C7
:1019700010438A00A850491EE3D51C460A98002847
:1019800002980CD0002800D001200199019A490545
:1019900008430121D20AC902D202019200E00121CA
:1019A000109B0122D207012B02D0002B03D013E0A1
:1019B000002807D11FE0904204D890420CD1019B2F
:1019C0000B4209D0019B5918019105D10099491C7E
:1019D000009101D1641C009200280CD0102108460F
:1019E0000020C046002F06D01198002803D00821FF
:1019F00008460020C04608980999019A009B006893
:101A000009684840C10F0798C907214382600AC08E
:101A10000BB0F0BD00B585B0019300920A460146B7
:101A2000002302A8FFF7FCFD02A807C805B000BD0F
:101A3000FFB50A461F4685B007990193012300911F
:101A4000014602A8FFF7ECFD02990398049ECA0F15
:101A50004900D20700920F22490892028C1A0021F5
:101A6000002800DB0C46450013486D08844214D35F
:101A7000079A002A04DA441E0026104DF64302E0BD
:101A800004460D460E46102108460020C046002F91
:101A900003D0042108460020C0462005E90A084377
:101AA000009908436905F20A1143ADE602C0FFFF41
:101AB000013C0000FF3F0000FF070000FFFFFF7F29
:101AC00000B585B0019300920A460146002302A8A2
:101AD000FFF79CFE02A807C8A8E7FFB50A461F4605
:101AE00085B00799019301230091014602A8FFF7F1
:101AF0008DFE02990398049ECA0F4900D2070092F6
:101B00000F22490892028C1A0021002800DB0C46A3
:101B1000450011486D08844214D3079A002A04DA5C
:101B2000441E00260D4DF64302E004460D460E46C7
:101B3000102108460020C046002F03D0042108468B
:101B40000020C0462005E90A0843009908436905BA
:101B5000F20A114358E60000FF070000FFFFFF7F75
:101B600010B50446C046C0462046FEF765FB10BDD2
:101B7000004870470008002082078B079A423FD137
:101B800070B5920F0AD0032402780B78401C491CD0
:101B9000002A33D09A4231D12042F5D1214EF401AE
:101BA00004C808C9951B9543254018D19A420FD106
:101BB00004C808C9951B9543254010D19A4207D106
:101BC00004C808C9951B9543254008D19A42E7D01F
:101BD00012BA1BBA01209A4200D2404270BD12BA1A
:101BE0001BBA2DBA18241000E0401900E140401A39
:101BF00005D12E00E64002D1083CF4D1D01A70BDC8
:101C000002780B78401C491C002A09D09A4207D15F
:101C100002780B78401C491C002A01D09A42EFD070
:101C2000D01A70470101010101491820ABBEFEE73F
:101C300026000200704730B58C180278401C13074C
:101C40001B0F01D10378401C120906D10278401CF9
:101C500003E00578401C0D70491C5B1EF9D101E0C2
:101C60000B70491C521EFBD1A142E6D3002030BDAF
:101C7000B0B5027A032A01D1036804E043695B1E10
:101C8000934004681B190B60037C042B02D1446849
:101C90000C3409E0447A032C01D1446804E045691E
:101CA0006D1EA54044682C194C609206D218C3687A
:101CB0001343427A92071A430546143538CD006A19
:101CC0001043284320431A01103A02438A60B0BDF2
:101CD00080B521480021016041600161C943416133
:101CE000C161816201638163012282640260C1611A
:101CF000416200F0BFF980BD70B50C460546164E36
:101D0000164971602068002803D02A018918FFF75E
:101D1000AFFF6068002804D02901B2685118FFF7AE
:101D2000A7FFA168012001433160A840617B012920
:101D300001D1706100E0B06130627062A17B002966
:101D400001D0F06200E03063217B012901D1706392
:101D500070BDB06370BDC046048002400004002026
:101D600000218173818101604160816070470000C2
:101D700091490A68FF239A43101808607047C046CB
:101D80008D4A002903D01168014311607047116822
:101D9000814311607047C04687480168014A0A4084
:101DA0000260704700FF0086B0B58EB0202001258C
:101DB000294600F013FBFFF78BFF01AC2046FFF72D
:101DC000CFFF0020A073A58105A801900E20214619
:101DD000FFF792FF0F202146FFF78EFF0EB0B0BD38
:101DE00010B5044600F0ECF80122100320801249DF
:101DF00061801249A1801221E1800021218161814D
:101E0000A181D203E2816022228231226282642295
:101E1000A2820422E2820A4A2283FD2252006283C5
:101E20008122D201A28303221203E28321846184EE
:101E300021856085218610BDAB78000056340000F6
:101E400007050000C08E0840411E8841704770B5EC
:101E50008A6802800A790B68DB029A184B7913436F
:101E6000828E1A4382868A898B7B5B031343CA7BEB
:101E700012031A430B7C9B0013434A7C52001A4303
:101E80008B7C1343C3838A8ACB7C9B0313438C7D57
:101E9000E4021C43CB7D9B0223430C7E64021C4363
:101EA000CB6923434C7E24021C4384832023CB5CD8
:101EB000DB034C8C1C438B8C2343CC8C1C430B4688
:101EC00020331D7AED0125435C7AA4012C439D7AD1
:101ED0006D012543CC6A2C43DD7A2D0125434583D2
:101EE0004C8E1D7CED0325431C7D2C43CD8E25435C
:101EF000DC7E64002C435D7E9E7E2E43B50125432F
:101F00001C7F24012C435D7F6D0125439C7FA40031
:101F10002C43DD7F25431B7EDB002B4303834023C3
:101F2000CB5A43804223CB5A83804423CB5AC3806D
:101F3000CB6C03811B0C43818B6C83811B0CC38195
:101F40000B6D03824B6D43828B6D8382C96DC182A1
:101F500001204003824201D1FFF726FF70BD00003F
:101F6000094A002900D0511C038B13400B43038303
:101F70007047C046044A002900D0511C438B1340CF
:101F80000B4343837047C046FF7F0000491E4A420F
:101F90004A41818E01239943891881867047000048
:101FA000084305490A68054B134003430120C00656
:101FB000184308607047C04634000240FFFF00C766
:101FC00010B50446808E01218843A086102120464A
:101FD000FFF738FF0128F9D110BDB0B50446808E57
:101FE00001252843A086E08B03218843E083204617
:101FF0002946FFF7BFFF20462946FFF7B1FFB0BDD6
:10200000B0B5442112224252202200218154416164
:10201000154AC2600E2383801C2303600183C164C0
:10202000124B036441860A23C362114B83624184CD
:102030008023C36101231C060461DD02856005461F
:102040002035AC61EA6105221202C2862975297425
:1020500044620421C16564218165312141656021AB
:102060000165D9068164B0BD00000101AB7856342A
:1020700001010101014820210160704780E200E078
:10208000F0B58BB00A464168069181680791C16836
:102090000891016903914169049181690991019253
:1020A00011880090C0690590002949D001230320C0
:1020B0002C4C00221646019D07E0921C4908761C14
:1020C000640080005B0000293AD0CF07F5D00A9465
:1020D000059C9C43EF79B7403C430594099C84439D
:1020E0006F7A97403C430994089C9C43AF7AB74071
:1020F0003C430894079C84432F7A97403C430794C1
:10210000069C9C43AF78B7403C43069402900498E9
:102110000A9CA043374610376C79BC400443A87929
:10212000B0402043049003980A9CA043EC78BC4044
:1021300004432879B04020430A9C03900298BCE7EE
:10214000009806994160079981600899C1600399D8
:10215000016104994161099981610599C1610BB0DF
:10216000F0BDC04601000100411E88418000C64903
:102170000A6804239A4310180860704710B5C24AD1
:1021800093680324A343034393600F200002136862
:1021900083430802184310601068400706D5106892
:1021A000082103460B4313608843106010BDC046EE
:1021B00080B582B000200190212000F0ADF8019997
:1021C000491C01910199002802D1480A0328F3D340
:1021D000212000F0A1F8411E884102B080BD00001E
:1021E000411E8841800099490A6804239A431018C7
:1021F0000860704795490A68F0239A43000110432C
:102200000860704703210902904A13688B43034317
:1022100013607047F0B583B002908C490868086875
:10222000C0078B4E8B4F304600D038460A685207A5
:10223000024606D50A46083A12681205120F521CC9
:102240004243009201900122D3030A689205950F40
:10225000344610D0022D1C460DD0012D0AD10A683B
:102260001206009C07D50A685206520F521C009CA9
:10227000D44000E0784C029804604A684A68D2076B
:10228000344600D03C464A685207274606D50A46DF
:10229000083A12681206120F571C67434A68D206A2
:1022A000D20F3D46D54002984560CA6815063546AE
:1022B00003D55206520F674DD5400298C560CA68D3
:1022C000100703D507200240624ED64002980661EF
:1022D00088680326064007D0022E0098019003D09C
:1022E000012E019400D0019788688006820F07D0E4
:1022F000022A019B04D0012A01D1574B00E02B4652
:1023000088680105C9174005400F401C0840C340BC
:102310000298836003B0F0BD1F210140E02202401B
:10232000202A01D0044800E002480268CA40012087
:1023300010407047000002403C800D401A490B6875
:102340000C2293430B60042802D0082801D0704768
:1023500004220868104308607047C04680B582B008
:10236000002001902320FFF7D7FF0199491C01911C
:102370000199002801D1C80BF4D02320FFF7CCFF2E
:10238000411E884102B080BD07490B680322934378
:102390000B60012802D0022801D070470122086892
:1023A000104308607047C0460800024080B582B004
:1023B000002001902220FFF7AFFF0199491C0191F5
:1023C0000199002802D1480A0328F3D32220FFF7FD
:1023D000A3FF411E884102B080BD0000054A0029CC
:1023E00003D0116801431160704711688143116087
:1023F0007047C0461C00024080B5144A106810683F
:10240000C0071349084600D0124813685B0706D579
:102410001346083B1B681B051B0F5B1C58431368C6
:102420009B059B0F0FD0022B09D0012B0AD11168FD
:102430000906090F491C00F09BFB014603E001203F
:10244000C10300E004490548016080BD0C00024062
:1024500000127A0000093D00409C000000000020AE
:1024600080B50948102181610021816001604160CF
:10247000C16001614161C1610162416281620163C8
:10248000FFF7BAFF80BDC04604000240B0B5174A4E
:10249000174B984201D0144600E0141D2468154DD6
:1024A000A84215D0144DA84209D0E34DA8420DD141
:1024B000FF25AC436118012424060C430FE04B4D6B
:1024C0002C40090209190124640607E0984206D14C
:1024D0000A4D2C40090409190124A4060C1998423C
:1024E00001D01460B0BD5460B0BDC04624000240AD
:1024F000008009400000084000800740FFFF00FB0B
:102500004A1E9141C26801239A435118C160704725
:102510000F221202C36893435918C16070470A68BA
:1025200002608A8842608A6882608A89CB899A18A8
:102530000B8AD2184B8AD2188B8AD218C2600A8BA7
:10254000CB8A1B019A184B8BD218898B51180165C5
:1025500070470021818001608160C160016141613B
:102560008161818370470021C160016041608160A9
:10257000016241628162C162016341638163C1633F
:10258000016641668166C166016141618161C16127
:10259000016741678167C167016441648164C16407
:1025A000016541658165C16502468032D1609160F7
:1025B000516080228150704710B5374A1368374CFC
:1025C000A0420AD0364CA0420ED1FF2083435818B7
:1025D00001210B060343136010BD044803400802A9
:1025E000C018012149064318136010BDFF00FFFD0C
:1025F000026B002903D001210A430263704702499C
:102600000A4002637047C046FEFF0000F0B587B085
:102610000D46044602A8FFF7FDFD1F480068029E14
:102620001E498C42019405D01D498C4205D10721D9
:10263000084001E04005400FC6402C462D68A9081F
:10264000304600F095FA0746B000394600F090FA9F
:10265000401BC001294600F08BFA801C042802D9D7
:10266000002007B0F0BDB809019A50623F20384001
:102670009062A088E1880143208908436189014371
:10268000D06A0843D062106B06490140A089084314
:102690001063012007B0F0BD280002400080034015
:1026A000000003407F00FFFFF0B50B462A498C88ED
:1026B0000E88A642324601D801214A03151BAFB24B
:1026C0000021A6420A4601D8244AB21892B2D21971
:1026D000083A9A423EDB0721C9066350D91CCA1743
:1026E000920F89188C10291F8DB21D4A9D4216DA4F
:1026F000AD08641B002D07D00026174602C802C78C
:10270000761CB1B28D42F9D8002C15D000261546A2
:1027100002C802C5761CB1B28C42F9D80DE0991DF1
:102720000729154609D30026154602C802C5761C9E
:10273000B1B28C42F9D800E015460A4CA5421046C9
:1027400000D82846002102C0A04200D80246024814
:10275000428019460846F0BD2800003000F0FFFF17
:1027600000100038FC1F0000F0B5FFB0FCB00E46B2
:1027700007467D20C40001AD28462146FDF733FE03
:10278000A81D06223946FDF7CFFD0120C002A88111
:102790003079717909020818A880307871780902B7
:1027A0000818B178F278120251180904081801903B
:1027B00028462146FFF778FF7FB07CB0F0BD0000CF
:1027C000F0B589B0FFF7F0FA1848194901601948C7
:1027D000172101800125A8032946FFF7FFFD164EAA
:1027E000002430462146FFF751FE3046FFF7BBFE7E
:1027F00001AF3846FFF7ADFE5020B8800F48039078
:1028000030463946FFF78BFE29023046FFF780FE3F
:1028100030462946FFF774FE0948047009480470E1
:10282000094804700948047009B0F0BD6008002030
:102830000A0000026608002000000740400D030067
:10284000650800206908002068080020640800204E
:10285000B0B514480168144A0A430260134CE0689A
:1028600080252843E0606068284360600120810380
:10287000A2690A43A2610104A2690A43A26100029B
:1028800021680143216000F05BF800F0E5F808489A
:1028900000F07CF820682843206006A000F014F8BF
:1028A000B0BDC0461C0002404000800100000C404A
:1028B0000A000020494E49542030204655434B53CE
:1028C00020474956454E000083B070B5174EB544B9
:1028D0000446184868440160174868440260174875
:1028E00068440360134B6B44029303AD0E4E2846BD
:1028F00031462246FDF7FCFC0446A8190021417030
:10290000012C07DB03AD2646287800F09FF86D1CEC
:10291000761EF9D10D2000F099F82046044EB544FA
:1029200070BC02BC03B00847FE070000F4F7FFFFCD
:102930000C0800001C08000020080000240800000B
:1029400010B50124E0062146FFF748FD2046FFF7B9
:102950001BFDFFF72BFD0128FBD102200821FFF70B
:102960000DFC01242046FFF7FFFBFFF721FC0128A7
:10297000FBD10020FFF73EFC2046FFF731FC200290
:10298000FFF740FCFFF738FD10BD0000F0B59BB02D
:102990000290FFF701FA032005070026284631467A
:1029A000FFF7FEFA202001242146FFF717FD04203F
:1029B000FFF7C4FC03AFFFF7D1FC002840D0384636
:1029C0003F300190403728463146FFF7E9FA30465C
:1029D000FFF7CEF920062146FFF7D2F92846FFF788
:1029E000FFF9009603AE3046FFF70AFB029A5078D3
:1029F000117809020818B880D0789178090208186F
:102A0000788050791179090208183880B4740E2042
:102A100030710099B182747401980170E88EE88673
:102A20000948059028463146FFF711FAFFF7C8FE1E
:102A300028462146FFF7AAFA2846FFF7CEFA00E01B
:102A4000F44320461BB0F0BDDC05000023498A6931
:102A50009206FCD408607047F0B587B00124E00509
:102A60002146FFF7BBFC04AE002535717571B571C9
:102A7000F571B4721648308116480490164F3846E6
:102A80003146FFF7FDFAB5701020308038463146E8
:102A9000FFF7F6FA40202146FFF7A0FC0F4E304624
:102AA0002946FFF789FD03200002694688818620B8
:102AB000029060200190E120000200903046FFF774
:102AC000A5FD30462146FFF793FD07B0F0BDC04697
:102AD000010300000800010000800B4000000340DB
:102AE00082B0FFF7B5FE01A8002101806846018091
:102AF00001208303C403164D164F184A03E00198C2
:102B0000401C01A908802888800701D43C6000E0AF
:102B10007C602888000701D43B6000E07B6001A84E
:102B200000889042EBD10C4A10688021414011602E
:102B30000B480C492E4625461C46FFF715FE0AA0F9
:102B4000FFF7C2FE23462C463546044AD7E7C04667
:102B50003600003020000B4000000C40FFFF00005A
:102B60000A0000200400002053454E444544000064
:102B700043088B421AD3002203098B4279D3030AFC
:102B80008B425ED3030B8B4242D3030C8B4227D381
:102B90000902FF2212BA030C8B4202D3121209025D
:102BA00003D0030B8B4233D31AE0D3E0411A8041A8
:102BB000401C704703460B4371D443088B42F5D346
:102BC000002203098B4254D3030A8B4239D3030BEF
:102BD0008B421DD3030C8B4202D394466EE0090A4C
:102BE000C30B8B4201D3CB03C01A5241830B8B42E0
:102BF00001D38B03C01A5241430B8B4201D34B03C9
:102C0000C01A5241030B8B4201D30B03C01A52412D
:102C1000C30A8B4201D3CB02C01A5241830A8B42B2
:102C200001D38B02C01A5241430A8B4201D34B029B
:102C3000C01A5241030A8B4201D30B02C01A5241FF
:102C4000CDD2C3098B4201D3CB01C01A52418309B3
:102C50008B4201D38B01C01A524143098B4201D3ED
:102C60004B01C01A524103098B4201D30B01C01A18
:102C70005241C3088B4201D3CB00C01A5241830892
:102C80008B4201D38B00C01A524143088B4201D3BF
:102C90004B00C01A5241411A524110007047CA0FEE
:102CA00000D04942031000D34042534000229C46CA
:102CB00003098B422DD3030A8B4212D38901FC22D4
:102CC00012BA030A8B420CD3890192118B4208D3AA
:102CD000890192118B4204D3890137D0921100E00F
:102CE0008909C3098B4201D3CB01C01A5241830920
:102CF0008B4201D38B01C01A524143098B4201D34D
:102D00004B01C01A524103098B4201D30B01C01A77
:102D10005241C3088B4201D3CB00C01A52418308F1
:102D20008B4201D38B00C01A5241D9D243088B4247
:102D300001D34B00C01A5241411A00D20146524100
:102D4000104663465B1000D34042704763465B10F9
:102D500000D3404201B50021004201D0C9430846DA
:102D6000C046C04602BDF8B5040C8BB2264682B2FE
:102D70005E43104658430D0C370C36040021801971
:102D8000164679416E43370C360480192646794140
:102D90006E438919F8BD00004900CA0202431000C1
:102DA00000D004204A0D01D001221043044A490DED
:102DB000914201D102210843012800D1052070472A
:102DC000FF07000030380A2801D201207047002098
:102DD0007047000010B500290AD00878002807D0F5
:102DE00005487844FEF7C8FE002801D0002010BD39
:102DF0000248784410BD0000860100007E010000FA
:102E000010B500290AD00878002807D00548784472
:102E1000FEF7B2FE002801D0002010BD0248784421
:102E200010BD0000760100006E01000003B40248EE
:102E30007844844603BC6047E1DFFFFF03B40248E7
:102E40007844844603BC604749E2FFFF000000006D
:102E500000000000303132333435363738394142E2
:102E600043444546403058003031323334353637EC
:102E70003839616263646566403078000400000898
:102E8000000000000000000200010000103031329C
:102E9000333435363738396162636465667870007B
:102EA0003031323334353637383941424344454680
:102EB0005850000002400000000000A00000000088
:102EC00005400000000000C8000000000C400000A9
:102ED0000000409C00000000194000000020BCBE23
:102EE0000000000034400000BFC91B8E0000000439
:102EF000B5400000504BCFD06607E2CF0100000084
:102F00006C4100003E8251AADFEEA73401000000B0
:102F1000D9420000DCB5A0E23A301F97FFFFFFFF67
:102F2000B4450000FD25A0C8E9A3C14FFFFFFFFF86
:102F3000FF3F00000000008000000000FF3F000095
:102F400000000080000000000034000000000020AD
:102F500000080000361C000020340000000800209B
:102F600070200000040100001C000000430000006D
:102F7000F8FFFFFF0C0000000E0000000F00000033
:102F80002E0000001001000043000000F8FFFFFFCA
:102F9000004040404040404040404141414141406C
:102FA0004040404040404040404040404040404021
:102FB00040050202020202020202020202020202B0
:102FC00002202020202020202020200202020202B5
:102FD000020290909090909010101010101010100D
:102FE0001010101010101010101010100202020219
:102FF000020288888888888808080808080808085D
:103000000808080808080808080808080202020258
:103010004000000000000000000000000000000070
:1030200000000000000000000000000000000000A0
:103030000000000000000000000000000000000090
:103040000000000000000000000000000000000080
:103050000000000000000000000000000000000070
:103400002400127A0DFF7085C2C8BF25622662AA09
:10341000BBCC01FF01FF01FF01FF01FF01FF01FF25
:040000050000027D78
:00000001FF
