:020000040000FA
:100000007020002061020000690200006B02000005
:1000100000000000000000000000000000000000E0
:100020000000000000000000000000006D02000061
:1000300000000000000000006F02000071020000DC
:1000400073020000750200007702000079020000D0
:100050007B0200007D0200007F02000081020000A0
:100060008302000085020000870200008902000070
:100070008B0200008D0200000922000091020000A6
:100080009302000095020000970200009902000010
:100090009B0200009D0200009F020000A1020000E0
:1000A000A30200000000000000000000A502000004
:1000B000A7020000A9020000AB020000AD02000090
:1000C00000F002F800F0BDF80CA030C80838241881
:1000D0002D18671EA246AB4654465D46AC4201D180
:1000E00000F0AFF87E460F3EB6460FCC01263342F5
:1000F00000D0FB1A3343A246AB461847A82A00009B
:10010000C82A0000103A02D378C878C1FAD852073A
:1001100001D330C830C101D504680C6070470000BD
:100120000023002400250026103A01D378C1FBD813
:10013000520700D330C100D50B60704710B56E294F
:1001400002D100F0EBFB10BD702902D100F02DFDB3
:1001500010BD662902D102F073FC10BD652902D1E1
:1001600002F06EFC10BD672902D102F069FC10BDDF
:10017000612902D102F06CFC10BD03681B0A01D397
:1001800080231943692902D100F092FB10BD642934
:1001900002D100F08DFB10BD752902D100F088FB63
:1001A00010BD6F2902D100F0ABFC10BD782902D13F
:1001B00000F0E8FC10BDE92902D100F047FC10BDB9
:1001C000E42902D100F042FC10BDF52902D100F073
:1001D0003DFC10BDEF2902D100F09EFC10BDF829B6
:1001E00002D100F0DDFC10BD0368DB0901D38023E0
:1001F0001943632902D101F0C0F910BD732902D15E
:1002000001F0C3F910BDE32902D101F0CDF910BD11
:10021000F32902D101F0D0F910BD002010BD1FB5A7
:1002200001F02AFA04000020002102F09BFB401C90
:1002300060600020002102F07FFBE0601FBD10B570
:1002400010BD01F0F2F91146FFF7E9FF02F016FACE
:1002500001F086FD03B4FFF7F2FF03BC01F0E4FDFB
:100260001648804716480047FEE7FEE7FEE7FEE730
:10027000FEE7FEE7FEE7FEE7FEE7FEE7FEE7FEE756
:10028000FEE7FEE7FEE7FEE7FEE7FEE7FEE7FEE746
:10029000FEE7FEE7FEE7FEE7FEE7FEE7FEE7FEE736
:1002A000FEE7FEE7FEE7FEE7FEE7FEE7FEE700000B
:1002B00004480549054A064B70470000DD2100004F
:1002C000C10000007000002070200020701000208D
:1002D000701000207CB51D4616460C00009001D021
:1002E0000019401E084B7B442A466946019030465F
:1002F00000F02DFB002C054603D06946002000F0DD
:1003000039FB28467CBD0000950600000022030949
:100310008B4273D3030A8B4258D3030B8B423CD3DB
:10032000030C8B4221D312E003460B437FD40022FF
:1003300043088B4274D303098B425FD3030A8B4279
:1003400044D3030B8B4228D3030C8B420DD30902F9
:10035000FF2212BA030C8B4202D31212090265D09B
:10036000030B8B4219D300E0090AC30B8B4201D364
:10037000CB03C01A5241830B8B4201D38B03C01AAB
:100380005241430B8B4201D34B03C01A5241030B22
:100390008B4201D30B03C01A5241C30A8B4201D3D3
:1003A000CB02C01A5241830A8B4201D38B02C01A7E
:1003B0005241430A8B4201D34B02C01A5241030AF5
:1003C0008B4201D30B02C01A5241CDD2C3098B42DA
:1003D00001D3CB01C01A524183098B4201D38B0157
:1003E000C01A524143098B4201D34B01C01A5241FA
:1003F00003098B4201D30B01C01A5241C3088B423F
:1004000001D3CB00C01A524183088B4201D38B0029
:10041000C01A524143088B4201D34B00C01A5241CB
:10042000411A00D201465241104670475DE0CA0FA2
:1004300000D04942031000D3404253409C46002262
:1004400003098B422DD3030A8B4212D38901FC226C
:1004500012BA030A8B420CD3890192118B4208D342
:10046000890192118B4204D389013AD0921100E0A4
:100470008909C3098B4201D3CB01C01A52418309B8
:100480008B4201D38B01C01A524143098B4201D3E5
:100490004B01C01A524103098B4201D30B01C01A10
:1004A0005241C3088B4201D3CB00C01A524183088A
:1004B0008B4201D38B00C01A5241D9D243088B42E0
:1004C00001D34B00C01A5241411A00D20146524199
:1004D000104663465B1001D34042002B00D54942D1
:1004E000704763465B1000D3404201B504490028C1
:1004F00002DC491C084000E00846C046C04602BD78
:10050000FFFFFF7F70477047704700000121C9055A
:100510000123411842001B06D3185B0E0AD0C110FC
:100520000722D206891840075242D14201D5520013
:1005300089187047090208D50146002A03D0C10F67
:10054000C9070020704710467047420202D00020C1
:1005500002497047072109050143F4E70000F87FCD
:10056000F0B5FF252D04C609C209FF2704462E4019
:100570000137CB093E4348402A402B400746002A1A
:100580006BD0002B69D0AA4267D0AB4265D000285F
:1005900000DA32460125ED0529432C4309022002E9
:1005A000090AD21A4B0C7F24E31A434C000A7C44FC
:1005B000E35C7D242404121914145B00A218884201
:1005C00001D3521C00E0400049420C465C43241118
:1005D0005C43DB016415E318040A5C43C502200D8B
:1005E0000C4644436419250A5D432303EC0C0D4675
:1005F000654300030019EB184C42A34201D35B187A
:10060000401CD4052018002B07D05B00C91804D368
:10061000401C002901D1400840003F2189048A4242
:1006200009D3002A08DC1106090F04D00321490769
:100630004018C00FC007F0BD012241001206891802
:100640007F2252069142F6D205214907C84201D5C0
:100650009010F0BDFF20C005F0BD002F00DA32463B
:100660001648AA4207D2AB4205D21902090E17D08A
:10067000F80FC007F0BDFF2563002D06AB42F9D887
:100680004900A942F6D8AB4201D1A942F2D0A94211
:1006900001D1002101E061004908D0050843F0BD07
:1006A0001102090EFBD0FF200243D005F0BD0A461F
:1006B0000146104654E70000AE2400000000C07F51
:1006C00010B50202C11504D00123DB071A4300292B
:1006D00014DBBE235B1A0CD41146D9401C46203CC7
:1006E00002D41046E04010BD2020C31A10469840A6
:1006F00010BDFF2241001206914202D9002001469E
:1007000010BDC017C043C11710BD1F22030C02D17A
:100710000F2200041CD0030E01D10002083A030F7F
:1007200001D10001121F830F01D18000921E002809
:1007300001DB4000521ED205511802125118192235
:10074000904004D3491C002801D1490849000846BB
:100750007047C10FC90700D04042012292071143E0
:10076000D3E701218907D0E710B50346080001D07F
:10077000202001E0190002D00C0C02D003E0084652
:1007800010BD090410380C0E01D1090208380C0FF5
:1007900001D10901001F8C0F01D18900801E0029A1
:1007A00001DB4900401E1C46C4402143C405A21879
:1007B0002024241A080A801819229140E0D3A3406B
:1007C0000B43401C002BDBD14008400010BDCA0F7A
:1007D000D20703D00B460021404299419D23DB05FF
:1007E0001A43C1E79D22D205BEE770B5044685696C
:1007F0000068C10601D5302600E02026C00707D0DA
:1008000070BD62683046A1689047206A401C206233
:100810006D1EF6D570BD70B5044685690078C007B9
:1008200007D170BD6268A16820209047206A401CF3
:1008300020626D1EF6D570BD09684A0501D540B22B
:100840007047C905FCD500B2704709684A0501D553
:10085000C0B27047C905FCD580B2704770B50C4670
:100860000546012A05D02878800600D5EA690023CC
:1008700002E0012305E05B1C934202D2E05C002809
:10088000F9D1A869E618C01AA861286AC0182862B8
:100890002846FFF7AAFF04E06A682078A968641C6C
:1008A0009047B442F8D32846FFF7B5FF70BD00006B
:1008B000F7B5002575291068009914A611D0FFF727
:1008C000BBFF002802DA404211A608E0009909683F
:1008D0008A0701D50FA602E0490704D50EA6012517
:1008E00001E0FFF7B2FF009F0024243704E000F08E
:1008F00088FE30313955641C0028F8D12B46324629
:100900002146009800F05FFAFEBD000000000000E4
:100910002D0000002B00000020000000116802687C
:10092000006A530501D5087009E0D30501D5088098
:1009300005E0130602D5C21705C100E008600120DA
:100940007047000001694A1C02610878704700B5D1
:100950008FB00291002105910549019379440391DB
:1009600011460490684600F02DF90FB000BD00005C
:10097000E5FFFFFF0A681070521C0A6070470CC93F
:1009800008399A4202D2531C0B6010707047000065
:10099000F7B50446154686B02B487844002703C8AF
:1009A0003E460090019111E007986A467100415A55
:1009B00002A800F005FE411C07D02178890603D566
:1009C000E269391891420ED83F18761C20788006CB
:1009D00002D5E069B84206DDAE42E5DB079871005A
:1009E000405A0028E0D1A069C01BA0612046FFF753
:1009F000FCFE154878445A3803C800900020019145
:100A000016E041006A460798415A02A800F0D8FD56
:100A10000590401C0AD0002505E0626802A8A16884
:100A2000405D90476D1C05988542F6D30498401CA4
:100A3000B0420490E5DB206AC01920622046FFF72F
:100A4000EAFE09B0F0BD000002210000F7B5D21D9A
:100A50000025D20815A6D200F52905CA11D0002A12
:100A600005DA00214042914111A60A4608E00099AA
:100A700009688B0701D50FA602E0490701D50EA62C
:100A800001251146009F0024243704E000F05EF9A0
:100A900030323A55641C02460A43F7D12B4632469F
:100AA0002146009800F08FF9FEBD00000000000014
:100AB0002D0000002B0000002000000070B504464F
:100AC0000021243408E05507D2086D0F30356554F5
:100AD0005D072A43DB08491C15461D43F3D1046812
:100AE000002310A2250708D520252C400C4304D054
:100AF000C46901230CA2641EC46100F064F970BDD6
:100B000010B5044621461068FFF79FFE00230246F9
:100B10002046FFF7D3FF10BDD21DD108C9000CC974
:100B2000CCE700000000000030000000F8B50F46E0
:100B30000188090502D5224C7C4402E0204C7C440B
:100B40000E3405460021243508E016071209360F39
:100B5000A65D6E541E0732431B09491C16461E43F0
:100B6000F3D1224604780023240705D5702F06D040
:100B7000002901D00223113200F025F9F8BD01232C
:100B80001032F9E770B504460D4621461068FFF7AC
:100B90005CFE0023024629462046FFF7C7FF70BDD2
:100BA000D21DD308DB000CCBC0E730B4036820248F
:100BB0001268234303600823C36130BC0023B5E7F8
:100BC0006C1F0000F3B50446002081B0206220466F
:100BD000E1688847002872D0252802D06268A168A1
:100BE000ABE0594F00267F442046E1688847202823
:100BF000054608DB312D06D2781920380078002808
:100C000001D00643F0E7B00701D504208643002059
:100C1000E0610746A0612A2D0AD0284601F084FE33
:100C2000002827D0B8000019303D0090856119E0F8
:100C30000298BA00121902C8916102902046E16838
:100C40008847012F054617D1E06900281FDA2020C8
:100C500086431CE000980A218069484300994019A6
:100C6000303888612046E1688847054601F05CFE1F
:100C70000028EFD1012F0AD02E2D08D12046E1689F
:100C800088470546202006437F1C022FC3DBA0694E
:100C9000002803DA4042A06101200643F00701D09A
:100CA000102086436C2D0BD0682D09D04C2D3CD0E4
:100CB0006A2D38D0742D38D07A2D36D016E040E029
:100CC000E1682F4620468847B842054609D16C2F77
:100CD00029D001208002E168064320468847054666
:100CE00004E06C2F1DD0FF2001300643002D28D0DA
:100CF00028464138192803D80120C0020643203570
:100D0000204626602946029A1646FFF717FA002861
:100D100010D001280BD0F61DF008C000083002905A
:100D200055E74020E1E78020D5E70020D3E7361DD6
:100D300002964CE762682846A1689047206A401CEA
:100D400044E7206AFEBD0000E61E00000B4670B5B9
:100D5000024689078008084319469D08141AA941CC
:100D600025090807054308092C194841250A0106E9
:100D70000D43010A2C194141200C0D0428430D0C90
:100D800000194D41002140194D41C0086907084331
:100D9000E908840F8D002543840024184D4124194F
:100DA0006D41121BAB4107E00925ED432C1152198F
:100DB00063410024401C61411C460A250026551B46
:100DC000B441F1D270BDFFB504460D4681B0243068
:100DD00000902168880604D51022E06991432160C3
:100DE00000E00120A84201DD471B00E00027049835
:100DF000A1697A191018081AA0612078C00602D4D7
:100E00002046FFF7F2FC002608E003986268A1681C
:100E1000805D9047206A401C761C206204988642C0
:100E2000F3DB2078C0060AD52046FFF7DEFC06E09B
:100E30006268A16830209047206A401C20623846D2
:100E40007F1E0028F4DC07E000986268A168405D1E
:100E50009047206A401C206228466D1E0028F3DC63
:100E60002046FFF7D8FC2078000602D5022005B006
:100E7000F0BD0120FBE70000FFB50C461E468FB019
:100E800003CA089009914F007D0D00D16D1E00210D
:100E900008460020C0460321099A89050840002A17
:100EA00003DA8200801840080840800D01280A906B
:100EB00002DD0020C0430A90089807430DD0F04897
:100EC000F049281848430714189800281DD0754287
:100ED000291E1DDD0A9842421BE01898012802D005
:100EE0000020302104E00020F24305E02154401CA2
:100EF000B042FBDB30460022189B002121540F99A1
:100F00008B600A60486013B0F0BDBD1B6D1CDFE74D
:100F10000A9A002900DA69420BA800F0F5FB0BAB36
:100F200007CB03AB07C30899099800F059FC6B463F
:100F300007C30146D4480918002D00910BDDD249A2
:100F400003980A9A49424018002303A9039068466F
:100F500000F0B6FE08E003990A9A0023081803A9D6
:100F60000390684600F056FE6B4607C30004000C71
:100F700003D00020C043410800E01046189A002A20
:100F800003D00022009215461EE0751E05D4FFF71F
:100F9000DDFE303262556D1EF9D5012208430796F9
:100FA00002D000227F1C04E02078302801D10022EA
:100FB0007F1E002A069787D01EE0112D07DAFFF763
:100FC000C5FE303262556D1C02460A43F5D1084316
:100FD00003D00098002819D00EE00021681E05E01B
:100FE000235C625C63542254401E491C8142F7DB3F
:100FF000A81B401E07950690079A18990020A05438
:101000000F98079B069A81600CC07CE71126002090
:10101000189059E7D21DF0B50D460446D10893B09B
:10102000C90003C90C900D9101F068FC02460D98AF
:10103000C00F01D02D2007E02068810701D52B20AB
:1010400002E04007C00F4001032A0F9001D0072A99
:1010500005DB03462946204600F012FB0EE120780E
:10106000800601D5E76900E006272846652D04D0F3
:10107000662814D0672D69D12DE00020112F009033
:1010800001DB112300E07B1C0CAA03A910A8FFF7C9
:10109000F3FE1199002610987D1C0E9142E001206C
:1010A0003B460CAAC0070B900120009003A910A892
:1010B000FFF7E2FE119D12981099002600280E9568
:1010C00001D1781C0D18781B02D446427D1C761E77
:1010D000E81B00903AE0012F00DA01270020112FD1
:1010E000009001DD112300E03B460CAA03A910A8E3
:1010F000FFF7C2FE11993D46109800260E91217807
:1011000009070BD40E99A94200DA0D4603A9012D57
:1011100004DD4A19203AD27F302A06D0B84201DADB
:10112000011D04DA012100910FE06D1EEFE7002898
:1011300002DC86192D1A03E0411CA94200DD0D4690
:10114000801B401C00900120C0070B9020780007F6
:1011500005D40098A84202DB0020C04300906946F5
:101160000020C8720B98012102AF0337C9078842DB
:1011700025D0022010902B2011900B9800280BDA1C
:1011800040420B902D20119006E00B9800F039FAA8
:1011900030317F1E0B9039701099481E0029109035
:1011A000F3DC0B980028F0D111987F1E387020884E
:1011B000000501D5452000E065207F1E387001A89C
:1011C000C01BC01D0B900F98002800D001204119B2
:1011D0000098C01709180B980818A169081A401E32
:1011E000A0612078C00602D42046FFF7FEFA0F98CF
:1011F000002805D06268A1689047206A401C2062E0
:101200002078C00625D52046FFF7EFFA21E0002E12
:1012100007DB0E98B04204DD03A86268805DA16818
:1012200002E06268A16830209047206A761C401C6A
:1012300020620098401E002800900AD100F01CFA9D
:10124000C06862680168405CA1689047206A401CE1
:10125000206228466D1E0028D9DC07E062683878D5
:10126000A1687F1C9047206A401C20620B99481E91
:1012700000290B90F2DC2046FFF7CDFA032042E66E
:1012800001FCFFFF104D0000E1DFFFFFD21DF0B5B4
:1012900004460D46D0088DB0C00046680768314648
:1012A000384601F02BFB0246F00F01D02D2307E05A
:1012B0002068810701D52B2302E04007C00F4301BE
:1012C0006846002B037001D0012000E00020032AB3
:1012D0000A9001D0072A04DB2946204600F0D0F905
:1012E0002DE12078800601D40D2500E0E56970002D
:1012F000400D0D2D01904BDA300D00210B9008466A
:101300000020C046032189050840002E05DA82002E
:101310008018C20F1018401008408015012801DD08
:101320000020C043A9000023182906D39C460A4682
:101330000123183A1B07D34003E001221205CA40DB
:1013400094460C31202902D33A46203900E0324637
:101350008A40002802DD002A06D119E0002817D1B2
:101360000121C9078A4213D3194663467F185E419B
:10137000002806D10120C007824202D108468743D7
:101380009E430B98310D814202D00198401C019080
:101390002088000502D57149794402E06F497944FB
:1013A00019396B460A9830221A540A980A7C401C54
:1013B0001A54401C0A900198002801DC302000E0FB
:1013C00031201872019A0120002A02D0644BD218F1
:1013D00004E072003A4302D0614A521C0192002D8F
:1013E00002DC2278120703D56A462E2050720220B2
:1013F0000022864694460CE032033601120F6D1E21
:101400008B5C02AA13546246521C401C9446052A67
:1014100001DA002DF0DC002202AE08E03B0F3F01B4
:10142000CB5C521C6D1E3354401C082A01DA002D7F
:10143000F4DC23689A0601D511E0401E704504DDF6
:101440003218203AD27F302AF7D0002807DD321830
:10145000203AD27F2E2A02D11A0700D4401E002D36
:1014600003DD3E223254401C6D1E497C31540199EB
:10147000401C002906DA2D21471C315401984042B6
:10148000019003E02B21471C315401987D21C900B4
:10149000884206DBFEF748FF3030F0557F1C019193
:1014A00001E0642808DB01986421FEF73DFF30303D
:1014B000F0557F1C019101E00A2806DB01980A2102
:1014C000FEF732FF3030F0557F1C01980A21FEF7FD
:1014D0002BFF3031F1550A98A1697F1C7A19101839
:1014E000081AA0612078C00602D42046FFF77DF9D3
:1014F000216A6E460A980818206204E06268307813
:10150000A168761C90470A98401E0A90401CF5D1AD
:101510002078C00602D52046FFF767F902AE09E041
:101520003078761C3E280DD06268A1689047206A0A
:10153000401C20627F1EF3D22046FFF76CF90DB0ED
:101540000320F0BD206A4019206203E06268A168B0
:10155000302090476D1EEDD3F8E7000058170000CB
:1015600001FCFFFF10B54369002B02D0C046C04606
:1015700001E0FFF773F9012010BD12780146243114
:101580000A7000224A700122ECE711680022D2435F
:10159000E8E710B54369002B02D0C046C04601E021
:1015A000FFF7F6F9012010BD12880146243182842C
:1015B0000022C2840122ECE711680022D243E8E74E
:1015C000F8B516460C46054600F04EF80368FF20B5
:1015D0000230C05C012807D0FF2C0FD8185D00280E
:1015E0000CD001202C70F8BDFF3332462146083361
:1015F0001868C71828460023B847F8BD0020C04324
:10160000F8BD01468008081A02091018020A1018CD
:10161000020C1018C008820012185200891A01E04A
:10162000401C0A390A29FBD27047754600F0A0FB1E
:10163000AE46050069465346C008C000854618B04E
:1016400020B5FEF735FE60BCB64600260027C0C5B3
:10165000C0C5C0C5C0C5C0C5C0C5C0C5C0C5403D6A
:10166000490849008D46704710B500F005F8001D87
:1016700010BD00BFF1120000004870472800002094
:10168000F8B51F46044601230068DB020326014625
:101690001840072A05DB002801D017A506E017A58A
:1016A00004E0002801D016A500E016A51020814313
:1016B0002160A069C01E002FA06101D0401EA06162
:1016C0002046FFF792F8002F09D038466268A168DB
:1016D0009047206A401C2062C01C206206E0206AFD
:1016E000FAE762682878A1686D1C9047761EF8D2E8
:1016F0002046FFF790F8F8BD4E414E006E616E0037
:10170000494E4600696E6600F7B516468AB0334802
:1017100078446C4603467C33C06F5A689B680DC49E
:101720002E487844763003AC0DC80DC43720C00174
:10173000081837211B30FEF7F7FD05460C46803DA3
:101740001B3C02D56442012000E0002000270990E4
:1017500010E0E0070CD00C20204978437944324651
:101760004C3941186846012300F054FA6B4607C310
:1017700064107F1C002CECD1184F7F442E3F16E0E4
:10178000E80712D02001C0190EC8069108930792ED
:101790000068F04201D1981908903246012306A949
:1017A00003A800F037FA03AB07C36D10641C002DCB
:1017B000E6D10998002806D032466946012303A8DD
:1017C00000F07EFA05E001233246694603A800F0E6
:1017D00021FA0A9B07C30DB0F0BD0000F41300000E
:1017E000034640000A4610B5400D0BD00121C90741
:1017F0000F24A40200191C0364082143540D214343
:10180000D20207E000210120F2E7D40F4900214372
:101810005200401E0029F8DADB0FDB07184310BD29
:10182000FFB50D46144685B04868516801F04DF883
:1018300000910190A868A16801F047F80291039017
:10184000A868616801F041F8029A12188242029277
:1018500001D2012000E00020019A0B18D2180028C4
:10186000019202D08A4202D903E08A4201D20120C9
:1018700000E000200099081800906868A16801F055
:1018800024F8029A12188242029201D2012000E04A
:101890000020019A0B18D2180028019202D08A4227
:1018A00002D903E08A4201D2012000E00020009921
:1018B000081800902868216840004900400849083D
:1018C0004018FA49471814E001994000C90F08432D
:1018D0000090019802994000C90F084301900298B6
:1018E00003994000C90F08430290039840007F1EEF
:1018F000039000980028E7DA0898002801D0EC4E01
:1019000000E00026B74201DA012000E000200028B4
:1019100004902AD0F71BF806C00E15D0029B202198
:10192000091A039A8B401A430392029A019BC24000
:101930008B401A430292019A009BC2408B4000994F
:101940001A430192C14000917B110DD06F460320D4
:10195000C11A03D500218200B95003E08A0081003A
:10196000BA587A50401EF3D537460398029900289A
:1019700000D00120014308980291002808460CD0AD
:10198000002800D001200199019A4905084301214E
:10199000D20AC902D202019200E001210E9B01226B
:1019A000D207012B02D0002B03D013E0002807D16F
:1019B00020E0904204D890420CD1019B0B4209D008
:1019C000019B5918019105D10099491C009101D141
:1019D0007F1C009200280DD0102108460020C04630
:1019E0000498002806D00F98002803D00821084644
:1019F0000020C04628682168019B009A4840C10F1A
:101A00000598C90739430EC009B0F0BDFFB587B0CE
:101A1000099A0898089953689268406889689646B8
:101A20000022039317469446089A12685300099AB5
:101A30005B081268520052089A1A9E4BD4180A9AF0
:101A4000002A01D0352200E0402206920022012324
:101A500015460492DB07059324E0002D05D1754659
:101A60000346039E4D1BB34109D375466646039B4F
:101A7000491B049D9841059B7519AC465F4163461F
:101A80003B4308D0059B049EDD0776082E435B0888
:101A90000496059301E0521E641EC50FED07491818
:101AA0004041521C069B9A42D7DB002D04D175465B
:101AB000039A6B1A824101D203200CE0039A0B4671
:101AC0006B404240134303D0014303D0012002E0A6
:101AD000022000E000206146019100210097029160
:101AE0000A99002905D0614640020143704B0191DB
:101AF00002E08007002302909C4201DA012000E00E
:101B0000002007003AD01A1BD006C00E15D0029D47
:101B10002021019C091AC5408C402543029C8C4021
:101B200000D001242543019C0295009DC4408D40B6
:101B300000992C430194C140009154111DD06D4671
:101B40000221002202290CD10320001B07E00028FB
:101B500004DB8600AE59002E00D00122401C032871
:101B6000F5DB081B02D588002A5004E080002858C5
:101B700010438A00A850491EE3D51C460A98002845
:101B800002980CD0002800D001200199019A490543
:101B900008430121D20AC902D202019200E00121C8
:101BA000109B0122D207012B02D0002B03D013E09F
:101BB000002807D11FE0904204D890420CD1019B2D
:101BC0000B4209D0019B5918019105D10099491C7C
:101BD000009101D1641C009200280CD0102108460D
:101BE0000020C046002F06D01198002803D00821FD
:101BF00008460020C04608980999019A009B006891
:101C000009684840C10F0798C907214382600AC08C
:101C10000BB0F0BD00B585B0019300920A460146B5
:101C2000002302A8FFF7FCFD02A807C805B000BD0D
:101C3000FFB50A461F4685B007990193012300911D
:101C4000014602A8FFF7ECFD02990398049ECA0F13
:101C50004900D20700920F22490892028C1A0021F3
:101C6000002800DB0C46450013486D08844214D35D
:101C7000079A002A04DA441E0026104DF64302E0BB
:101C800004460D460E46102108460020C046002F8F
:101C900003D0042108460020C0462005E90A084375
:101CA000009908436905F20A1143ADE602C0FFFF3F
:101CB000013C0000FF3F0000FF070000FFFFFF7F27
:101CC00000B585B0019300920A460146002302A8A0
:101CD000FFF79CFE02A807C8A8E7FFB50A461F4603
:101CE00085B00799019301230091014602A8FFF7EF
:101CF0008DFE02990398049ECA0F4900D2070092F4
:101D00000F22490892028C1A0021002800DB0C46A1
:101D1000450011486D08844214D3079A002A04DA5A
:101D2000441E00260D4DF64302E004460D460E46C5
:101D3000102108460020C046002F03D00421084689
:101D40000020C0462005E90A0843009908436905B8
:101D5000F20A114358E60000FF070000FFFFFF7F73
:101D600010B50446C046C0462046FEF773FA10BDC3
:101D7000004870470800002082078B079A423FD135
:101D800070B5920F0AD0032402780B78401C491CCE
:101D9000002A33D09A4231D12042F5D1214EF401AC
:101DA00004C808C9951B9543254018D19A420FD104
:101DB00004C808C9951B9543254010D19A4207D104
:101DC00004C808C9951B9543254008D19A42E7D01D
:101DD00012BA1BBA01209A4200D2404270BD12BA18
:101DE0001BBA2DBA18241000E0401900E140401A37
:101DF00005D12E00E64002D1083CF4D1D01A70BDC6
:101E000002780B78401C491C002A09D09A4207D15D
:101E100002780B78401C491C002A01D09A42EFD06E
:101E2000D01A70470101010101491820ABBEFEE73D
:101E30002600020070470000F0B58BB00A464168EA
:101E4000069181680791C168089101690391416910
:101E5000049181690991019211880090C0690590EF
:101E6000002949D0012303202C4C00221646019D55
:101E700007E0921C4908761C640080005B00002982
:101E80003AD0CF07F5D00A94059C9C43EF79B74030
:101E90003C430594099C84436F7A97403C430994E2
:101EA000089C9C43AF7AB7403C430894079C84430A
:101EB0002F7A97403C430794069C9C43AF78B740E9
:101EC0003C430694029004980A9CA043374610377E
:101ED0006C79BC400443A879B04020430490039837
:101EE0000A9CA043EC78BC4004432879B0402043CE
:101EF0000A9C03900298BCE70098069941600799F4
:101F000081600899C160039901610499416109994F
:101F100081610599C1610BB0F0BDC04601000100AF
:101F2000411E88418000B7490A6804239A4310186B
:101F30000860704710B5B34A93680324A343034372
:101F400093600F2000021368834308021843106057
:101F50001068400706D51068082103460B4313603C
:101F60008843106010BDC04680B582B0002001904B
:101F7000212000F0B5F80199491C01910199002830
:101F800002D1480A0328F3D3212000F0A9F8411E0A
:101F9000884102B080BD0000411E884180008A490E
:101FA0000A6804239A4310180860704786490A6833
:101FB000F0239A430001104308607047032109028F
:101FC000814A13688B43034313607047F0B584B0B4
:101FD00003907D49086880077C4A7D480290164638
:101FE00000D57B4E086801252840C6400868400798
:101FF000304606D50846083800680005000F401C2A
:1020000070430190E8030B689B059F0F144610D0A6
:10201000022F04460DD0012F0AD10B681B06019C2C
:1020200007D50B685B065B0F5B1C019CDC4000E086
:10203000684C0090039804604B689B07174600D5D6
:10204000634F4B682B40DF404B685B073D4606D52E
:102050000B46083B1B681B061B0F5D1C7D434B6832
:10206000DB06DB0F2C46DC4003984460CB681C0683
:10207000144603D55B065B0F184CDC400398C46024
:10208000CB68180703D507200340DA400292039873
:10209000029A026188680322024006D0022A019E49
:1020A00003D0012A3E4600D02E4688688006820F63
:1020B000009B07D0022A334604D0012A01D1454BA8
:1020C00000E0234688680105C9174005400F401C01
:1020D0000840C3400398836004B0F0BD00093D0090
:1020E0001F210140E0220240202A01D0044800E0E4
:1020F00002480268CA4001201040704700000240B8
:102100003C800D4007490B68032293430B60012874
:1021100002D0022801D070470122086810430860ED
:102120007047C0460800024080B582B00020019090
:102130002220FFF7D5FF0199491C01910199002840
:1021400002D1480A0328F3D32220FFF7C9FF411E1A
:10215000884102B080BD0000D04A002903D0116838
:102160000143116070471168814311607047C04698
:1021700010B5154A106880071449084600D5144860
:10218000146801231C40E0401468640706D5144617
:10219000083C24682405240F641C60431468A405CB
:1021A000A40F0ED0022C09D0012C09D11168090608
:1021B000090F491C00F08EFA014602E0D90300E045
:1021C00004490548016010BD0C00024000127A006D
:1021D0000024F400409C00000000002080B5094865
:1021E000102181610021816001604160C160016155
:1021F0004161C1610162416281620163FFF7B8FF21
:1022000080BDC04604000240B0B5D74C0225204630
:10221000294600F065F8012805D1E8436065D148FA
:102220000168491C0160B0BDB0B5174A174B984210
:1022300001D0144600E0141D2468154DA84215D0A5
:10224000144DA84209D0C84DA8420DD1FF25AC437A
:102250006118012424060C430FE0364D2C4009027E
:1022600009190124640607E0984206D10A4D2C4062
:10227000090409190124A4060C19984201D014601C
:10228000B0BD5460B0BDC04624000240008009408B
:102290000000084000800740FFFF00FB4A1E9141FC
:1022A000C26801239A435118C16070470A680260EE
:1022B0008A8842608A6882608A89CB899A180B8AE8
:1022C000D2184B8AD2188B8AD218C2600A8BCB8A5A
:1022D0001B019A184B8BD218898B511801657047D6
:1022E000826D0A40406D1040411E88417047836DE9
:1022F000002A02D00B43836570478B438365704788
:1023000010B5374A1368374CA0420AD0D64CA042C9
:102310000ED1FF208343581801210B06034313609D
:1023200010BD044803400802C018012149064318A3
:10233000136010BDFF00FFFD026B002903D00121D7
:102340000A430263704702490A4002637047C0466D
:10235000FEFF0000F0B587B00D46044602A8FFF767
:1023600035FE1F480068029E1E498C42019405D02C
:10237000BD498C4205D10721084001E04005400FCE
:10238000C6402C462D68A908304600F0A3F9074640
:10239000B000394600F09EF9401BC001294600F00C
:1023A00099F9801C042802D9002007B0F0BDB809B3
:1023B000019A50623F2038409062A088E188014332
:1023C0002089084361890143D06A0843D062106BB9
:1023D00005490140A08908431063012007B0F0BD02
:1023E00028000240008003407F00FFFF70B588B0E6
:1023F0000124A0032146FFF7AFFEB54D0026284675
:102400003146FFF711FF69468E838E800396009652
:10241000049605960696F04302902846FFF746FF7D
:1024200000F024F9022128462246FFF760FF2846E3
:102430002146FFF733FF08B070BDC046B0B517485E
:102440000168174A0A430260164C20460C3801689E
:102450008025294301602046143801682943016022
:102460000120810322680A4322600004216801439D
:10247000216000F07BF800F0B5F80B480068FEF72B
:1024800045F8024609A00B4600F022F8183C2068E7
:1024900028432060FFF7AAFFB0BDC0461C000240E1
:1024A0004000800118000C406C00002025660000F0
:1024B00080B52C48016886480068FEF793F901460C
:1024C0004448006800F064FAFEF7FAF880BDC046A0
:1024D00083B070B5174EB54404461848684401608F
:1024E000174868440260174868440360134B6B4404
:1024F000029303AD0E4E284631462246FDF7EAFE12
:102500000446A81900214170012C07DB03AD2646C3
:10251000287800F061F86D1C761EF9D10D2000F0CE
:102520005BF82046044EB54470BC02BC03B00847BB
:10253000FE070000F4F7FFFF0C0800001C08000075
:10254000200800002408000080B5FEF74BF921495F
:102550000968FEF705F8FEF7B3F8024A11605C4916
:10256000086080BD680000200000074010B501240D
:10257000E0062146FFF7F0FD2046FFF7C3FDFFF719
:10258000D3FD0128FBD102200821FFF7D3FC012451
:102590002046FFF7C5FCFFF7E7FC0128FBD1002030
:1025A000FFF704FD2046FFF7F7FC2002FFF706FDCA
:1025B000FFF7DEFD05480068FEF7D3F80146044842
:1025C000FDF7CEFF0349086010BDC04600000020A3
:1025D000286B6E4E6C00002023498A699206FCD459
:1025E00008607047F0B587B00124E0052146FFF789
:1025F000B3FD04AE002535717571B571F571B47216
:102600001648308116480490164F38463146FFF779
:1026100013FCB5701020308038463146FFF70CFCB3
:1026200040202146FFF798FD0F4E30462946FFF720
:1026300067FE0320000269468881862002906020A0
:102640000190E120400200903046FFF783FE3046C3
:102650002146FFF771FE07B0F0BDC0460103000040
:102660000800010000800B400000034001208003AF
:10267000014908607047C04600E100E010B5FFF76F
:10268000DDFE0F480F49FFF75FFFFFF711FF02461E
:102690000D480B46FFF71CFF00200C490C4A0B4667
:1026A00014685B1EFCD1401C0A28F8D1FFF700FF1C
:1026B000024605480B46FFF70BFF002010BDC04641
:1026C0000051E08BB4D805009C2B0000FFE0F5051D
:1026D0000000074043088B421AD3002203098B42B3
:1026E00079D3030A8B425ED3030B8B4242D3030C94
:1026F0008B4227D30902FF2212BA030C8B4202D36A
:102700001212090203D0030B8B4233D31AE0D3E039
:10271000411A8041401C704703460B4371D4430863
:102720008B42F5D3002203098B4254D3030A8B4218
:1027300039D3030B8B421DD3030C8B4202D3944637
:102740006EE0090AC30B8B4201D3CB03C01A52417E
:10275000830B8B4201D38B03C01A5241430B8B4234
:1027600001D34B03C01A5241030B8B4201D30B031D
:10277000C01A5241C30A8B4201D3CB02C01A524144
:10278000830A8B4201D38B02C01A5241430A8B4207
:1027900001D34B02C01A5241030A8B4201D30B02F0
:1027A000C01A5241CDD2C3098B4201D3CB01C01A0A
:1027B000524183098B4201D38B01C01A5241430914
:1027C0008B4201D34B01C01A524103098B4201D302
:1027D0000B01C01A5241C3088B4201D3CB00C01A6F
:1027E000524183088B4201D38B00C01A52414308E7
:1027F0008B4201D34B00C01A5241411A5241100082
:102800007047CA0F00D04942031000D340425340E2
:1028100000229C4603098B422DD3030A8B4212D31C
:102820008901FC2212BA030A8B420CD3890192114E
:102830008B4208D3890192118B4204D3890137D08E
:10284000921100E08909C3098B4201D3CB01C01A60
:10285000524183098B4201D38B01C01A5241430973
:102860008B4201D34B01C01A524103098B4201D361
:102870000B01C01A5241C3088B4201D3CB00C01ACE
:10288000524183088B4201D38B00C01A5241D9D2E6
:1028900043088B4201D34B00C01A5241411A00D267
:1028A00001465241104663465B1000D340427047D8
:1028B00063465B1000D3404201B50021004201D0C5
:1028C000C9430846C046C04602BDF8B5040C8BB2E9
:1028D000264682B25E43104658430D0C370C360430
:1028E00000218019164679416E43370C3604801951
:1028F000264679416E438919F8BD00004900CA0295
:102900000243100000D004204A0D01D001221043E0
:10291000044A490D914201D102210843012800D106
:1029200005207047FF07000030380A2801D2012037
:10293000704700207047000010B500290AD00878C1
:10294000002807D005487844FFF716FA002801D080
:10295000002010BD0248784410BD00007E02000037
:102960007602000010B500290AD00878002807D0A8
:1029700005487844FFF700FA002801D0002010BD78
:102980000248784410BD00006E020000660200009C
:1029900070B5420064414B005C41120E39D01B0EF1
:1029A00038D0FF2A3CD0FF2B3AD0D2187F3A4002D1
:1029B0004902400A490A4518ED0106004E43000A43
:1029C000090A48430104731A4019190C4318990F56
:1029D00004D05B08012149075B1A521CD80904D3B3
:1029E000401CF50301D19D0607D0FF2A08D2D5056A
:1029F00006D0E4072043401970BD0125A843F4E741
:102A0000002A01DCE00770BD2402FF202043C0053E
:102A100070BD1B0EFF2A03D0FF2B01D0E00770BD55
:102A2000FF2636064500B54206D84D00B54203D80C
:102A3000D218FF2A00D0E7E7004870BD0000C07F31
:102A400003B402487844844603BC6047CDE5FFFFE9
:102A500003B402487844844603BC604735E8FFFF6E
:102A60008182838485868788898B8C8D8E8F9192D5
:102A700093959697999A9C9D9FA0A2A3A5A7A8AA73
:102A8000ACAEB0B2B3B5B7B9BCBEC0C2C5C7C9CC95
:102A9000CED1D4D7D9DCDFE2E6E9ECF0F3F7FAFEE9
:102AA000000000000000000030313233343536378A
:102AB0003839414243444546403058003031323382
:102AC0003435363738396162636465664030780082
:102AD00004000008000000000000000200010000E7
:102AE00010303132333435363738396162636465DA
:102AF00066787000303132333435363738394142F8
:102B0000434445465850000002400000000000A029
:102B10000000000005400000000000C800000000A8
:102B20000C4000000000409C000000001940000024
:102B30000020BCBE0000000034400000BFC91B8E56
:102B400000000004B5400000504BCFD06607E2CF34
:102B5000010000006C4100003E8251AADFEEA73464
:102B600001000000D9420000DCB5A0E23A301F9716
:102B7000FFFFFFFFB4450000FD25A0C8E9A3C14F3A
:102B8000FFFFFFFFFF3F000000000080000000008B
:102B9000FF3F00000000008000000000256C6C7505
:102BA00000000000F02C00000000002004000000E5
:102BB00004010000F42C0000080000206820000040
:102BC000200100001C00000043000000F8FFFFFF90
:102BD0000C0000000E0000000F0000002E0000009E
:102BE0001001000043000000F8FFFFFF00404040DC
:102BF00040404040404041414141414040404040D0
:102C0000404040404040404040404040400502027B
:102C1000020202020202020202020202022020203A
:102C20002020202020202002020202020202909096
:102C30009090909010101010101010101010101094
:102C400010101010101010100202020202028888E8
:102C500088888888080808080808080808080808F4
:102C600008080808080808080202020240000000DC
:102C70000000000000000000000000000000000054
:102C80000000000000000000000000000000000044
:102C90000000000000000000000000000000000034
:102CA0000000000000000000000000000000000024
:102CB0000000000000000000000000000000000014
:102CC0000000000000000000000000000000000004
:102CD00000000000000000000000000000000000F4
:102CE00000000000000000000000000000000000E4
:042CF00000127A0054
:040000050000026194
:00000001FF
